{
  "contractName": "Spectrum",
  "abi": [
    {
      "inputs": [],
      "stateMutability": "nonpayable",
      "type": "constructor"
    },
    {
      "anonymous": false,
      "inputs": [
        {
          "indexed": false,
          "internalType": "uint256",
          "name": "_stationId",
          "type": "uint256"
        },
        {
          "indexed": false,
          "internalType": "uint256",
          "name": "_capacityBought",
          "type": "uint256"
        }
      ],
      "name": "BuyStationCapacity",
      "type": "event"
    },
    {
      "anonymous": false,
      "inputs": [
        {
          "indexed": false,
          "internalType": "uint256",
          "name": "_stationId",
          "type": "uint256"
        },
        {
          "indexed": false,
          "internalType": "uint256",
          "name": "_entrySize",
          "type": "uint256"
        }
      ],
      "name": "NewServiceEntry",
      "type": "event"
    },
    {
      "anonymous": false,
      "inputs": [
        {
          "indexed": false,
          "internalType": "uint256",
          "name": "_stationId",
          "type": "uint256"
        }
      ],
      "name": "StationCreated",
      "type": "event"
    },
    {
      "anonymous": false,
      "inputs": [
        {
          "indexed": false,
          "internalType": "uint256",
          "name": "_stationId",
          "type": "uint256"
        },
        {
          "indexed": false,
          "internalType": "address",
          "name": "_newOwner",
          "type": "address"
        }
      ],
      "name": "StationOwnerChanged",
      "type": "event"
    },
    {
      "anonymous": false,
      "inputs": [
        {
          "indexed": false,
          "internalType": "uint256",
          "name": "_stationId",
          "type": "uint256"
        },
        {
          "indexed": false,
          "internalType": "uint256",
          "name": "_newSellCapacity",
          "type": "uint256"
        }
      ],
      "name": "StationSellCapacityChanged",
      "type": "event"
    },
    {
      "anonymous": false,
      "inputs": [
        {
          "indexed": false,
          "internalType": "uint256",
          "name": "_stationId",
          "type": "uint256"
        },
        {
          "indexed": false,
          "internalType": "enum Spectrum.StationState",
          "name": "_stationState",
          "type": "uint8"
        }
      ],
      "name": "StationStateChanged",
      "type": "event"
    },
    {
      "anonymous": false,
      "inputs": [
        {
          "indexed": false,
          "internalType": "uint256",
          "name": "_stationId",
          "type": "uint256"
        },
        {
          "indexed": false,
          "internalType": "uint256",
          "name": "_newtargetReserveCapacity",
          "type": "uint256"
        }
      ],
      "name": "StationTargetReserveCapacityChanged",
      "type": "event"
    },
    {
      "anonymous": false,
      "inputs": [
        {
          "indexed": false,
          "internalType": "uint256",
          "name": "_stationId",
          "type": "uint256"
        },
        {
          "indexed": false,
          "internalType": "uint256",
          "name": "_newSurcharge",
          "type": "uint256"
        }
      ],
      "name": "UpdateSurcharge",
      "type": "event"
    },
    {
      "anonymous": false,
      "inputs": [
        {
          "indexed": false,
          "internalType": "address",
          "name": "_newAddress",
          "type": "address"
        },
        {
          "indexed": false,
          "internalType": "bool",
          "name": "_status",
          "type": "bool"
        }
      ],
      "name": "WhiteListUpdated",
      "type": "event"
    },
    {
      "inputs": [],
      "name": "getOwner",
      "outputs": [
        {
          "internalType": "address",
          "name": "",
          "type": "address"
        }
      ],
      "stateMutability": "view",
      "type": "function",
      "constant": true
    },
    {
      "inputs": [
        {
          "internalType": "uint256",
          "name": "_startStationIndex",
          "type": "uint256"
        },
        {
          "internalType": "uint256",
          "name": "_amountOfStations",
          "type": "uint256"
        }
      ],
      "name": "getStations",
      "outputs": [
        {
          "components": [
            {
              "internalType": "uint256",
              "name": "stationId",
              "type": "uint256"
            },
            {
              "components": [
                {
                  "internalType": "uint256",
                  "name": "lat",
                  "type": "uint256"
                },
                {
                  "internalType": "uint256",
                  "name": "long",
                  "type": "uint256"
                }
              ],
              "internalType": "struct Spectrum.Coordinates",
              "name": "location",
              "type": "tuple"
            },
            {
              "internalType": "uint256",
              "name": "installedCapacity",
              "type": "uint256"
            },
            {
              "internalType": "uint256",
              "name": "sellCapacity",
              "type": "uint256"
            },
            {
              "internalType": "uint256",
              "name": "currentSurcharge",
              "type": "uint256"
            },
            {
              "internalType": "bool",
              "name": "surchargeIsSet",
              "type": "bool"
            },
            {
              "internalType": "uint256",
              "name": "targetReserveCapacity",
              "type": "uint256"
            },
            {
              "internalType": "uint256",
              "name": "pricePerMW",
              "type": "uint256"
            },
            {
              "internalType": "uint256",
              "name": "timeCreated",
              "type": "uint256"
            },
            {
              "internalType": "uint256",
              "name": "lastUpdated",
              "type": "uint256"
            },
            {
              "internalType": "enum Spectrum.GenerationType",
              "name": "generationType",
              "type": "uint8"
            },
            {
              "internalType": "enum Spectrum.StationState",
              "name": "state",
              "type": "uint8"
            },
            {
              "internalType": "address",
              "name": "organization",
              "type": "address"
            }
          ],
          "internalType": "struct Spectrum.PowerStation[]",
          "name": "",
          "type": "tuple[]"
        }
      ],
      "stateMutability": "view",
      "type": "function",
      "constant": true
    },
    {
      "inputs": [
        {
          "internalType": "address",
          "name": "_account",
          "type": "address"
        },
        {
          "internalType": "bool",
          "name": "_isWhiteListed",
          "type": "bool"
        }
      ],
      "name": "setWhiteList",
      "outputs": [],
      "stateMutability": "nonpayable",
      "type": "function"
    },
    {
      "inputs": [
        {
          "internalType": "address",
          "name": "_account",
          "type": "address"
        }
      ],
      "name": "isWhiteListed",
      "outputs": [
        {
          "internalType": "bool",
          "name": "",
          "type": "bool"
        }
      ],
      "stateMutability": "view",
      "type": "function",
      "constant": true
    },
    {
      "inputs": [
        {
          "internalType": "uint256",
          "name": "_stationId",
          "type": "uint256"
        }
      ],
      "name": "getRecordCount",
      "outputs": [
        {
          "internalType": "uint256",
          "name": "",
          "type": "uint256"
        }
      ],
      "stateMutability": "view",
      "type": "function",
      "constant": true
    },
    {
      "inputs": [],
      "name": "getStationAmount",
      "outputs": [
        {
          "internalType": "uint256",
          "name": "",
          "type": "uint256"
        }
      ],
      "stateMutability": "view",
      "type": "function",
      "constant": true
    },
    {
      "inputs": [
        {
          "internalType": "uint256",
          "name": "_lat",
          "type": "uint256"
        },
        {
          "internalType": "uint256",
          "name": "_long",
          "type": "uint256"
        },
        {
          "internalType": "uint256",
          "name": "_installCapacity",
          "type": "uint256"
        },
        {
          "internalType": "uint256",
          "name": "_sellCapacity",
          "type": "uint256"
        },
        {
          "internalType": "uint256",
          "name": "_pricePerMW",
          "type": "uint256"
        },
        {
          "internalType": "enum Spectrum.GenerationType",
          "name": "_generationType",
          "type": "uint8"
        },
        {
          "internalType": "enum Spectrum.StationState",
          "name": "_state",
          "type": "uint8"
        }
      ],
      "name": "addStation",
      "outputs": [],
      "stateMutability": "nonpayable",
      "type": "function"
    },
    {
      "inputs": [
        {
          "internalType": "uint256",
          "name": "_stationId",
          "type": "uint256"
        },
        {
          "internalType": "uint256",
          "name": "_newSurcharge",
          "type": "uint256"
        }
      ],
      "name": "setSurcharge",
      "outputs": [],
      "stateMutability": "nonpayable",
      "type": "function"
    },
    {
      "inputs": [
        {
          "internalType": "uint256",
          "name": "_stationId",
          "type": "uint256"
        },
        {
          "internalType": "uint256",
          "name": "_newCapacity",
          "type": "uint256"
        }
      ],
      "name": "updateStationSellCapacity",
      "outputs": [],
      "stateMutability": "nonpayable",
      "type": "function"
    },
    {
      "inputs": [
        {
          "internalType": "uint256",
          "name": "_stationId",
          "type": "uint256"
        },
        {
          "internalType": "uint256",
          "name": "_amount",
          "type": "uint256"
        }
      ],
      "name": "buyCapacity",
      "outputs": [],
      "stateMutability": "payable",
      "type": "function",
      "payable": true
    },
    {
      "inputs": [
        {
          "internalType": "uint256",
          "name": "_stationId",
          "type": "uint256"
        },
        {
          "internalType": "uint256",
          "name": "_newRate",
          "type": "uint256"
        }
      ],
      "name": "targetReserveCapacity",
      "outputs": [],
      "stateMutability": "nonpayable",
      "type": "function"
    },
    {
      "inputs": [
        {
          "internalType": "uint256",
          "name": "_stationId",
          "type": "uint256"
        },
        {
          "internalType": "string",
          "name": "_reportId",
          "type": "string"
        }
      ],
      "name": "newServiceEntry",
      "outputs": [],
      "stateMutability": "nonpayable",
      "type": "function"
    },
    {
      "inputs": [
        {
          "internalType": "uint256",
          "name": "_stationId",
          "type": "uint256"
        },
        {
          "internalType": "uint256",
          "name": "_startRecordIndex",
          "type": "uint256"
        },
        {
          "internalType": "uint256",
          "name": "_amountOfStations",
          "type": "uint256"
        }
      ],
      "name": "getRecords",
      "outputs": [
        {
          "components": [
            {
              "internalType": "uint256",
              "name": "reportDate",
              "type": "uint256"
            },
            {
              "internalType": "string",
              "name": "report",
              "type": "string"
            }
          ],
          "internalType": "struct Spectrum.StationRecord[]",
          "name": "",
          "type": "tuple[]"
        }
      ],
      "stateMutability": "view",
      "type": "function",
      "constant": true
    },
    {
      "inputs": [
        {
          "internalType": "uint256",
          "name": "_stationId",
          "type": "uint256"
        },
        {
          "internalType": "address",
          "name": "_newOwner",
          "type": "address"
        }
      ],
      "name": "changeStationOwner",
      "outputs": [],
      "stateMutability": "nonpayable",
      "type": "function"
    },
    {
      "inputs": [
        {
          "internalType": "uint256",
          "name": "_stationId",
          "type": "uint256"
        },
        {
          "internalType": "enum Spectrum.StationState",
          "name": "_newState",
          "type": "uint8"
        }
      ],
      "name": "changeStationState",
      "outputs": [],
      "stateMutability": "nonpayable",
      "type": "function"
    }
  ],
  "bytecode": "0x60806040526000805534801561001457600080fd5b5033600460006101000a81548173ffffffffffffffffffffffffffffffffffffffff021916908373ffffffffffffffffffffffffffffffffffffffff160217905550614207806100656000396000f3fe6080604052600436106100e85760003560e01c80637e4686c01161008a5780639778a783116100595780639778a783146102b9578063a7f6f9e5146102e4578063f2a5744114610321578063fabe5d3c1461035e576100e8565b80637e4686c0146102135780638431b2741461023c578063893d20e8146102655780638d14e12714610290576100e8565b80633b1f8119116100c65780633b1f81191461015b578063462a93e814610184578063499215d5146101ad5780636f9170f6146101d6576100e8565b80631949b499146100ed5780631a1ac303146101165780632f81ef441461013f575b600080fd5b3480156100f957600080fd5b50610114600480360381019061010f9190612c56565b61039b565b005b34801561012257600080fd5b5061013d60048036038101906101389190612c96565b6107d6565b005b61015960048036038101906101549190612c96565b610bea565b005b34801561016757600080fd5b50610182600480360381019061017d9190612c96565b61132f565b005b34801561019057600080fd5b506101ab60048036038101906101a69190612d34565b611733565b005b3480156101b957600080fd5b506101d460048036038101906101cf9190612eba565b611b76565b005b3480156101e257600080fd5b506101fd60048036038101906101f89190612f16565b611d31565b60405161020a9190612f5e565b60405180910390f35b34801561021f57600080fd5b5061023a60048036038101906102359190612f9e565b611d87565b005b34801561024857600080fd5b50610263600480360381019061025e9190612c96565b6120cb565b005b34801561027157600080fd5b5061027a6124df565b604051610287919061304f565b60405180910390f35b34801561029c57600080fd5b506102b760048036038101906102b29190613096565b612509565b005b3480156102c557600080fd5b506102ce61262d565b6040516102db91906130e5565b60405180910390f35b3480156102f057600080fd5b5061030b60048036038101906103069190613100565b612636565b60405161031891906132e0565b60405180910390f35b34801561032d57600080fd5b5061034860048036038101906103439190613302565b612827565b60405161035591906130e5565b60405180910390f35b34801561036a57600080fd5b5061038560048036038101906103809190612c96565b612847565b60405161039291906135f7565b60405180910390f35b813373ffffffffffffffffffffffffffffffffffffffff1660016000838152602001908152602001600020600b0160029054906101000a900473ffffffffffffffffffffffffffffffffffffffff1673ffffffffffffffffffffffffffffffffffffffff1614610440576040517f08c379a000000000000000000000000000000000000000000000000000000000815260040161043790613676565b60405180910390fd5b82806000541015610486576040517f08c379a000000000000000000000000000000000000000000000000000000000815260040161047d906136e2565b60405180910390fd5b600060016000868152602001908152602001600020604051806101a001604052908160008201548152602001600182016040518060400160405290816000820154815260200160018201548152505081526020016003820154815260200160048201548152602001600582015481526020016006820160009054906101000a900460ff16151515158152602001600782015481526020016008820154815260200160098201548152602001600a8201548152602001600b820160009054906101000a900460ff16600c81111561055f5761055e613399565b5b600c81111561057157610570613399565b5b8152602001600b820160019054906101000a900460ff16600481111561059a57610599613399565b5b60048111156105ac576105ab613399565b5b8152602001600b820160029054906101000a900473ffffffffffffffffffffffffffffffffffffffff1673ffffffffffffffffffffffffffffffffffffffff1673ffffffffffffffffffffffffffffffffffffffff1681525050905083816101600190600481111561062157610620613399565b5b9081600481111561063557610634613399565b5b8152505042816101200181815250508060016000878152602001908152602001600020600082015181600001556020820151816001016000820151816000015560208201518160010155505060408201518160030155606082015181600401556080820151816005015560a08201518160060160006101000a81548160ff02191690831515021790555060c0820151816007015560e08201518160080155610100820151816009015561012082015181600a015561014082015181600b0160006101000a81548160ff0219169083600c81111561071557610714613399565b5b021790555061016082015181600b0160016101000a81548160ff0219169083600481111561074657610745613399565b5b021790555061018082015181600b0160026101000a81548173ffffffffffffffffffffffffffffffffffffffff021916908373ffffffffffffffffffffffffffffffffffffffff1602179055509050507f3e5c5314cc4d1e6645b5cd322e50a545b9bc45c0a9b7e9e8f76110988b9ff7df85856040516107c7929190613711565b60405180910390a15050505050565b813373ffffffffffffffffffffffffffffffffffffffff1660016000838152602001908152602001600020600b0160029054906101000a900473ffffffffffffffffffffffffffffffffffffffff1673ffffffffffffffffffffffffffffffffffffffff161461087b576040517f08c379a000000000000000000000000000000000000000000000000000000000815260040161087290613676565b60405180910390fd5b828060005410156108c1576040517f08c379a00000000000000000000000000000000000000000000000000000000081526004016108b8906136e2565b60405180910390fd5b600060016000868152602001908152602001600020604051806101a001604052908160008201548152602001600182016040518060400160405290816000820154815260200160018201548152505081526020016003820154815260200160048201548152602001600582015481526020016006820160009054906101000a900460ff16151515158152602001600782015481526020016008820154815260200160098201548152602001600a8201548152602001600b820160009054906101000a900460ff16600c81111561099a57610999613399565b5b600c8111156109ac576109ab613399565b5b8152602001600b820160019054906101000a900460ff1660048111156109d5576109d4613399565b5b60048111156109e7576109e6613399565b5b8152602001600b820160029054906101000a900473ffffffffffffffffffffffffffffffffffffffff1673ffffffffffffffffffffffffffffffffffffffff1673ffffffffffffffffffffffffffffffffffffffff168152505090508381606001818152505042816101200181815250508060016000878152602001908152602001600020600082015181600001556020820151816001016000820151816000015560208201518160010155505060408201518160030155606082015181600401556080820151816005015560a08201518160060160006101000a81548160ff02191690831515021790555060c0820151816007015560e08201518160080155610100820151816009015561012082015181600a015561014082015181600b0160006101000a81548160ff0219169083600c811115610b2957610b28613399565b5b021790555061016082015181600b0160016101000a81548160ff02191690836004811115610b5a57610b59613399565b5b021790555061018082015181600b0160026101000a81548173ffffffffffffffffffffffffffffffffffffffff021916908373ffffffffffffffffffffffffffffffffffffffff1602179055509050507f7062361db41bcc66e0bc827fe996aae742f83c382763c1dedf1d87827ffe16878585604051610bdb92919061373a565b60405180910390a15050505050565b81806000541015610c30576040517f08c379a0000000000000000000000000000000000000000000000000000000008152600401610c27906136e2565b60405180910390fd5b600060016000858152602001908152602001600020604051806101a001604052908160008201548152602001600182016040518060400160405290816000820154815260200160018201548152505081526020016003820154815260200160048201548152602001600582015481526020016006820160009054906101000a900460ff16151515158152602001600782015481526020016008820154815260200160098201548152602001600a8201548152602001600b820160009054906101000a900460ff16600c811115610d0957610d08613399565b5b600c811115610d1b57610d1a613399565b5b8152602001600b820160019054906101000a900460ff166004811115610d4457610d43613399565b5b6004811115610d5657610d55613399565b5b8152602001600b820160029054906101000a900473ffffffffffffffffffffffffffffffffffffffff1673ffffffffffffffffffffffffffffffffffffffff1673ffffffffffffffffffffffffffffffffffffffff168152505090508060a00151610df6576040517f08c379a0000000000000000000000000000000000000000000000000000000008152600401610ded906137af565b60405180910390fd5b82816060015111610e3c576040517f08c379a0000000000000000000000000000000000000000000000000000000008152600401610e3390613841565b60405180910390fd5b6000838260800151610e4e9190613890565b90506000848360e00151610e629190613890565b90508181610e7091906138d2565b341015610eb2576040517f08c379a0000000000000000000000000000000000000000000000000000000008152600401610ea990613952565b60405180910390fd5b3373ffffffffffffffffffffffffffffffffffffffff1683610180015173ffffffffffffffffffffffffffffffffffffffff1603610f25576040517f08c379a0000000000000000000000000000000000000000000000000000000008152600401610f1c906139be565b60405180910390fd5b8483606001818151610f3791906139de565b9150818152505060008084610180015173ffffffffffffffffffffffffffffffffffffffff1683604051610f6a90613a43565b60006040518083038185875af1925050503d8060008114610fa7576040519150601f19603f3d011682016040523d82523d6000602084013e610fac565b606091505b509150915081610ff1576040517f08c379a0000000000000000000000000000000000000000000000000000000008152600401610fe890613aca565b60405180910390fd5b600080600460009054906101000a900473ffffffffffffffffffffffffffffffffffffffff1673ffffffffffffffffffffffffffffffffffffffff168660405161103a90613a43565b60006040518083038185875af1925050503d8060008114611077576040519150601f19603f3d011682016040523d82523d6000602084013e61107c565b606091505b5091509150816110c1576040517f08c379a00000000000000000000000000000000000000000000000000000000081526004016110b890613b36565b60405180910390fd5b600085876110cf91906138d2565b346110da91906139de565b90506000803373ffffffffffffffffffffffffffffffffffffffff168360405161110390613a43565b60006040518083038185875af1925050503d8060008114611140576040519150601f19603f3d011682016040523d82523d6000602084013e611145565b606091505b50915091508161118a576040517f08c379a000000000000000000000000000000000000000000000000000000000815260040161118190613ba2565b60405180910390fd5b428a61012001818152505089600160008f8152602001908152602001600020600082015181600001556020820151816001016000820151816000015560208201518160010155505060408201518160030155606082015181600401556080820151816005015560a08201518160060160006101000a81548160ff02191690831515021790555060c0820151816007015560e08201518160080155610100820151816009015561012082015181600a015561014082015181600b0160006101000a81548160ff0219169083600c81111561126657611265613399565b5b021790555061016082015181600b0160016101000a81548160ff0219169083600481111561129757611296613399565b5b021790555061018082015181600b0160026101000a81548173ffffffffffffffffffffffffffffffffffffffff021916908373ffffffffffffffffffffffffffffffffffffffff1602179055509050507f334e6d8556077c45cfd7f8b1c39bd04ebd753cabdd8da33d4e72facde1dd9a0f8d8d60405161131892919061373a565b60405180910390a150505050505050505050505050565b3373ffffffffffffffffffffffffffffffffffffffff16600460009054906101000a900473ffffffffffffffffffffffffffffffffffffffff1673ffffffffffffffffffffffffffffffffffffffff16146113bf576040517f08c379a00000000000000000000000000000000000000000000000000000000081526004016113b690613c0e565b60405180910390fd5b81806000541015611405576040517f08c379a00000000000000000000000000000000000000000000000000000000081526004016113fc906136e2565b60405180910390fd5b600060016000858152602001908152602001600020604051806101a001604052908160008201548152602001600182016040518060400160405290816000820154815260200160018201548152505081526020016003820154815260200160048201548152602001600582015481526020016006820160009054906101000a900460ff16151515158152602001600782015481526020016008820154815260200160098201548152602001600a8201548152602001600b820160009054906101000a900460ff16600c8111156114de576114dd613399565b5b600c8111156114f0576114ef613399565b5b8152602001600b820160019054906101000a900460ff16600481111561151957611518613399565b5b600481111561152b5761152a613399565b5b8152602001600b820160029054906101000a900473ffffffffffffffffffffffffffffffffffffffff1673ffffffffffffffffffffffffffffffffffffffff1673ffffffffffffffffffffffffffffffffffffffff168152505090508281608001818152505060018160a00190151590811515815250508060016000868152602001908152602001600020600082015181600001556020820151816001016000820151816000015560208201518160010155505060408201518160030155606082015181600401556080820151816005015560a08201518160060160006101000a81548160ff02191690831515021790555060c0820151816007015560e08201518160080155610100820151816009015561012082015181600a015561014082015181600b0160006101000a81548160ff0219169083600c81111561167357611672613399565b5b021790555061016082015181600b0160016101000a81548160ff021916908360048111156116a4576116a3613399565b5b021790555061018082015181600b0160026101000a81548173ffffffffffffffffffffffffffffffffffffffff021916908373ffffffffffffffffffffffffffffffffffffffff1602179055509050507f5d5bae7377b8a0e210141cfcb92ba775005ea8315c918130ce9155e36a387049848460405161172592919061373a565b60405180910390a150505050565b813373ffffffffffffffffffffffffffffffffffffffff1660016000838152602001908152602001600020600b0160029054906101000a900473ffffffffffffffffffffffffffffffffffffffff1673ffffffffffffffffffffffffffffffffffffffff16146117d8576040517f08c379a00000000000000000000000000000000000000000000000000000000081526004016117cf90613676565b60405180910390fd5b8280600054101561181e576040517f08c379a0000000000000000000000000000000000000000000000000000000008152600401611815906136e2565b60405180910390fd5b600060016000868152602001908152602001600020604051806101a001604052908160008201548152602001600182016040518060400160405290816000820154815260200160018201548152505081526020016003820154815260200160048201548152602001600582015481526020016006820160009054906101000a900460ff16151515158152602001600782015481526020016008820154815260200160098201548152602001600a8201548152602001600b820160009054906101000a900460ff16600c8111156118f7576118f6613399565b5b600c81111561190957611908613399565b5b8152602001600b820160019054906101000a900460ff16600481111561193257611931613399565b5b600481111561194457611943613399565b5b8152602001600b820160029054906101000a900473ffffffffffffffffffffffffffffffffffffffff1673ffffffffffffffffffffffffffffffffffffffff1673ffffffffffffffffffffffffffffffffffffffff168152505090508381610180019073ffffffffffffffffffffffffffffffffffffffff16908173ffffffffffffffffffffffffffffffffffffffff168152505042816101200181815250508060016000878152602001908152602001600020600082015181600001556020820151816001016000820151816000015560208201518160010155505060408201518160030155606082015181600401556080820151816005015560a08201518160060160006101000a81548160ff02191690831515021790555060c0820151816007015560e08201518160080155610100820151816009015561012082015181600a015561014082015181600b0160006101000a81548160ff0219169083600c811115611ab557611ab4613399565b5b021790555061016082015181600b0160016101000a81548160ff02191690836004811115611ae657611ae5613399565b5b021790555061018082015181600b0160026101000a81548173ffffffffffffffffffffffffffffffffffffffff021916908373ffffffffffffffffffffffffffffffffffffffff1602179055509050507f9d408f38b8860ad6809070bda69fa2711a5bb24601c845543f17696da14d6ad28585604051611b67929190613c2e565b60405180910390a15050505050565b813373ffffffffffffffffffffffffffffffffffffffff1660016000838152602001908152602001600020600b0160029054906101000a900473ffffffffffffffffffffffffffffffffffffffff1673ffffffffffffffffffffffffffffffffffffffff1614611c1b576040517f08c379a0000000000000000000000000000000000000000000000000000000008152600401611c1290613676565b60405180910390fd5b82806000541015611c61576040517f08c379a0000000000000000000000000000000000000000000000000000000008152600401611c58906136e2565b60405180910390fd5b611c69612b09565b8381602001819052504281600001818152505060026000868152602001908152602001600020819080600181540180825580915050600190039060005260206000209060020201600090919091909150600082015181600001556020820151816001019081611cd89190613e63565b5050507fa307fcc2482523f8163824b87b590e3d56cf1e3033f8bb817d50914c19744e64856002600088815260200190815260200160002080549050604051611d2292919061373a565b60405180910390a15050505050565b6000600360008373ffffffffffffffffffffffffffffffffffffffff1673ffffffffffffffffffffffffffffffffffffffff16815260200190815260200160002060009054906101000a900460ff169050919050565b600360003373ffffffffffffffffffffffffffffffffffffffff1673ffffffffffffffffffffffffffffffffffffffff16815260200190815260200160002060009054906101000a900460ff16611e13576040517f08c379a0000000000000000000000000000000000000000000000000000000008152600401611e0a90613f81565b60405180910390fd5b611e1b612b23565b8781600001818152505086816020018181525050611e37612b3d565b81816020018190525086816040018181525050848160e0018181525050858160600181815250504281610100018181525050428161012001818152505083816101400190600c811115611e8d57611e8c613399565b5b9081600c811115611ea157611ea0613399565b5b81525050828161016001906004811115611ebe57611ebd613399565b5b90816004811115611ed257611ed1613399565b5b815250503381610180019073ffffffffffffffffffffffffffffffffffffffff16908173ffffffffffffffffffffffffffffffffffffffff1681525050600054816000018181525050806001600080548152602001908152602001600020600082015181600001556020820151816001016000820151816000015560208201518160010155505060408201518160030155606082015181600401556080820151816005015560a08201518160060160006101000a81548160ff02191690831515021790555060c0820151816007015560e08201518160080155610100820151816009015561012082015181600a015561014082015181600b0160006101000a81548160ff0219169083600c811115611fed57611fec613399565b5b021790555061016082015181600b0160016101000a81548160ff0219169083600481111561201e5761201d613399565b5b021790555061018082015181600b0160026101000a81548173ffffffffffffffffffffffffffffffffffffffff021916908373ffffffffffffffffffffffffffffffffffffffff160217905550905050600160008082825461208091906138d2565b925050819055507f9fbf38f0b83106cb6d5a46e2eb2730f46db7826fe4a95964d233cc4ca65417a56000546040516120b891906130e5565b60405180910390a1505050505050505050565b813373ffffffffffffffffffffffffffffffffffffffff1660016000838152602001908152602001600020600b0160029054906101000a900473ffffffffffffffffffffffffffffffffffffffff1673ffffffffffffffffffffffffffffffffffffffff1614612170576040517f08c379a000000000000000000000000000000000000000000000000000000000815260040161216790613676565b60405180910390fd5b828060005410156121b6576040517f08c379a00000000000000000000000000000000000000000000000000000000081526004016121ad906136e2565b60405180910390fd5b600060016000868152602001908152602001600020604051806101a001604052908160008201548152602001600182016040518060400160405290816000820154815260200160018201548152505081526020016003820154815260200160048201548152602001600582015481526020016006820160009054906101000a900460ff16151515158152602001600782015481526020016008820154815260200160098201548152602001600a8201548152602001600b820160009054906101000a900460ff16600c81111561228f5761228e613399565b5b600c8111156122a1576122a0613399565b5b8152602001600b820160019054906101000a900460ff1660048111156122ca576122c9613399565b5b60048111156122dc576122db613399565b5b8152602001600b820160029054906101000a900473ffffffffffffffffffffffffffffffffffffffff1673ffffffffffffffffffffffffffffffffffffffff1673ffffffffffffffffffffffffffffffffffffffff16815250509050838160c001818152505042816101200181815250508060016000878152602001908152602001600020600082015181600001556020820151816001016000820151816000015560208201518160010155505060408201518160030155606082015181600401556080820151816005015560a08201518160060160006101000a81548160ff02191690831515021790555060c0820151816007015560e08201518160080155610100820151816009015561012082015181600a015561014082015181600b0160006101000a81548160ff0219169083600c81111561241e5761241d613399565b5b021790555061016082015181600b0160016101000a81548160ff0219169083600481111561244f5761244e613399565b5b021790555061018082015181600b0160026101000a81548173ffffffffffffffffffffffffffffffffffffffff021916908373ffffffffffffffffffffffffffffffffffffffff1602179055509050507fcfacc9926e2e58c32236421197bc1f6d940c590bffc1aebff1aede1f0aa18aed85856040516124d092919061373a565b60405180910390a15050505050565b6000600460009054906101000a900473ffffffffffffffffffffffffffffffffffffffff16905090565b3373ffffffffffffffffffffffffffffffffffffffff16600460009054906101000a900473ffffffffffffffffffffffffffffffffffffffff1673ffffffffffffffffffffffffffffffffffffffff1614612599576040517f08c379a000000000000000000000000000000000000000000000000000000000815260040161259090613c0e565b60405180910390fd5b80600360008473ffffffffffffffffffffffffffffffffffffffff1673ffffffffffffffffffffffffffffffffffffffff16815260200190815260200160002060006101000a81548160ff0219169083151502179055507fb1288e9f7bae3599e10819d5553febea48e11a6f8f585b32c8abad397dd2627e8282604051612621929190613fa1565b60405180910390a15050565b60008054905090565b60608160026000868152602001908152602001600020805490501015612691576040517f08c379a00000000000000000000000000000000000000000000000000000000081526004016126889061403c565b60405180910390fd5b6000808367ffffffffffffffff8111156126ae576126ad612d8f565b5b6040519080825280602002602001820160405280156126e757816020015b6126d4612b09565b8152602001906001900390816126cc5790505b50905060005b8481101561281a5760026000888152602001908152602001600020818761271491906138d2565b815481106127255761272461405c565b5b90600052602060002090600202016040518060400160405290816000820154815260200160018201805461275890613c86565b80601f016020809104026020016040519081016040528092919081815260200182805461278490613c86565b80156127d15780601f106127a6576101008083540402835291602001916127d1565b820191906000526020600020905b8154815290600101906020018083116127b457829003601f168201915b5050505050815250508284815181106127ed576127ec61405c565b5b602002602001018190525060018361280591906138d2565b925080806128129061408b565b9150506126ed565b5080925050509392505050565b600060026000838152602001908152602001600020805490509050919050565b6060600054831061288d576040517f08c379a000000000000000000000000000000000000000000000000000000000815260040161288490614145565b60405180910390fd5b600082036128d0576040517f08c379a00000000000000000000000000000000000000000000000000000000081526004016128c7906141b1565b60405180910390fd5b6000808367ffffffffffffffff8111156128ed576128ec612d8f565b5b60405190808252806020026020018201604052801561292657816020015b612913612b3d565b81526020019060019003908161290b5790505b50905060005b84811015612afd5760016000828861294491906138d2565b8152602001908152602001600020604051806101a001604052908160008201548152602001600182016040518060400160405290816000820154815260200160018201548152505081526020016003820154815260200160048201548152602001600582015481526020016006820160009054906101000a900460ff16151515158152602001600782015481526020016008820154815260200160098201548152602001600a8201548152602001600b820160009054906101000a900460ff16600c811115612a1657612a15613399565b5b600c811115612a2857612a27613399565b5b8152602001600b820160019054906101000a900460ff166004811115612a5157612a50613399565b5b6004811115612a6357612a62613399565b5b8152602001600b820160029054906101000a900473ffffffffffffffffffffffffffffffffffffffff1673ffffffffffffffffffffffffffffffffffffffff1673ffffffffffffffffffffffffffffffffffffffff1681525050828481518110612ad057612acf61405c565b5b6020026020010181905250600183612ae891906138d2565b92508080612af59061408b565b91505061292c565b50809250505092915050565b604051806040016040528060008152602001606081525090565b604051806040016040528060008152602001600081525090565b604051806101a0016040528060008152602001612b58612b23565b8152602001600081526020016000815260200160008152602001600015158152602001600081526020016000815260200160008152602001600081526020016000600c811115612bab57612baa613399565b5b815260200160006004811115612bc457612bc3613399565b5b8152602001600073ffffffffffffffffffffffffffffffffffffffff1681525090565b6000604051905090565b600080fd5b600080fd5b6000819050919050565b612c0e81612bfb565b8114612c1957600080fd5b50565b600081359050612c2b81612c05565b92915050565b60058110612c3e57600080fd5b50565b600081359050612c5081612c31565b92915050565b60008060408385031215612c6d57612c6c612bf1565b5b6000612c7b85828601612c1c565b9250506020612c8c85828601612c41565b9150509250929050565b60008060408385031215612cad57612cac612bf1565b5b6000612cbb85828601612c1c565b9250506020612ccc85828601612c1c565b9150509250929050565b600073ffffffffffffffffffffffffffffffffffffffff82169050919050565b6000612d0182612cd6565b9050919050565b612d1181612cf6565b8114612d1c57600080fd5b50565b600081359050612d2e81612d08565b92915050565b60008060408385031215612d4b57612d4a612bf1565b5b6000612d5985828601612c1c565b9250506020612d6a85828601612d1f565b9150509250929050565b600080fd5b600080fd5b6000601f19601f8301169050919050565b7f4e487b7100000000000000000000000000000000000000000000000000000000600052604160045260246000fd5b612dc782612d7e565b810181811067ffffffffffffffff82111715612de657612de5612d8f565b5b80604052505050565b6000612df9612be7565b9050612e058282612dbe565b919050565b600067ffffffffffffffff821115612e2557612e24612d8f565b5b612e2e82612d7e565b9050602081019050919050565b82818337600083830152505050565b6000612e5d612e5884612e0a565b612def565b905082815260208101848484011115612e7957612e78612d79565b5b612e84848285612e3b565b509392505050565b600082601f830112612ea157612ea0612d74565b5b8135612eb1848260208601612e4a565b91505092915050565b60008060408385031215612ed157612ed0612bf1565b5b6000612edf85828601612c1c565b925050602083013567ffffffffffffffff811115612f0057612eff612bf6565b5b612f0c85828601612e8c565b9150509250929050565b600060208284031215612f2c57612f2b612bf1565b5b6000612f3a84828501612d1f565b91505092915050565b60008115159050919050565b612f5881612f43565b82525050565b6000602082019050612f736000830184612f4f565b92915050565b600d8110612f8657600080fd5b50565b600081359050612f9881612f79565b92915050565b600080600080600080600060e0888a031215612fbd57612fbc612bf1565b5b6000612fcb8a828b01612c1c565b9750506020612fdc8a828b01612c1c565b9650506040612fed8a828b01612c1c565b9550506060612ffe8a828b01612c1c565b945050608061300f8a828b01612c1c565b93505060a06130208a828b01612f89565b92505060c06130318a828b01612c41565b91505092959891949750929550565b61304981612cf6565b82525050565b60006020820190506130646000830184613040565b92915050565b61307381612f43565b811461307e57600080fd5b50565b6000813590506130908161306a565b92915050565b600080604083850312156130ad576130ac612bf1565b5b60006130bb85828601612d1f565b92505060206130cc85828601613081565b9150509250929050565b6130df81612bfb565b82525050565b60006020820190506130fa60008301846130d6565b92915050565b60008060006060848603121561311957613118612bf1565b5b600061312786828701612c1c565b935050602061313886828701612c1c565b925050604061314986828701612c1c565b9150509250925092565b600081519050919050565b600082825260208201905092915050565b6000819050602082019050919050565b61318881612bfb565b82525050565b600081519050919050565b600082825260208201905092915050565b60005b838110156131c85780820151818401526020810190506131ad565b60008484015250505050565b60006131df8261318e565b6131e98185613199565b93506131f98185602086016131aa565b61320281612d7e565b840191505092915050565b6000604083016000830151613225600086018261317f565b506020830151848203602086015261323d82826131d4565b9150508091505092915050565b6000613256838361320d565b905092915050565b6000602082019050919050565b600061327682613153565b613280818561315e565b9350836020820285016132928561316f565b8060005b858110156132ce57848403895281516132af858261324a565b94506132ba8361325e565b925060208a01995050600181019050613296565b50829750879550505050505092915050565b600060208201905081810360008301526132fa818461326b565b905092915050565b60006020828403121561331857613317612bf1565b5b600061332684828501612c1c565b91505092915050565b600081519050919050565b600082825260208201905092915050565b6000819050602082019050919050565b604082016000820151613371600085018261317f565b506020820151613384602085018261317f565b50505050565b61339381612f43565b82525050565b7f4e487b7100000000000000000000000000000000000000000000000000000000600052602160045260246000fd5b600d81106133d9576133d8613399565b5b50565b60008190506133ea826133c8565b919050565b60006133fa826133dc565b9050919050565b61340a816133ef565b82525050565b6005811061342157613420613399565b5b50565b600081905061343282613410565b919050565b600061344282613424565b9050919050565b61345281613437565b82525050565b61346181612cf6565b82525050565b6101c08201600082015161347e600085018261317f565b506020820151613491602085018261335b565b5060408201516134a4606085018261317f565b5060608201516134b7608085018261317f565b5060808201516134ca60a085018261317f565b5060a08201516134dd60c085018261338a565b5060c08201516134f060e085018261317f565b5060e082015161350461010085018261317f565b5061010082015161351961012085018261317f565b5061012082015161352e61014085018261317f565b50610140820151613543610160850182613401565b50610160820151613558610180850182613449565b5061018082015161356d6101a0850182613458565b50505050565b600061357f8383613467565b6101c08301905092915050565b6000602082019050919050565b60006135a48261332f565b6135ae818561333a565b93506135b98361334b565b8060005b838110156135ea5781516135d18882613573565b97506135dc8361358c565b9250506001810190506135bd565b5085935050505092915050565b600060208201905081810360008301526136118184613599565b905092915050565b600082825260208201905092915050565b7f596f757220617265206e6f742073746174696f6e206f776e6572000000000000600082015250565b6000613660601a83613619565b915061366b8261362a565b602082019050919050565b6000602082019050818103600083015261368f81613653565b9050919050565b7f53746174696f6e20496420646f736e2774206578697374000000000000000000600082015250565b60006136cc601783613619565b91506136d782613696565b602082019050919050565b600060208201905081810360008301526136fb816136bf565b9050919050565b61370b81613437565b82525050565b600060408201905061372660008301856130d6565b6137336020830184613702565b9392505050565b600060408201905061374f60008301856130d6565b61375c60208301846130d6565b9392505050565b7f53757263686172676520686173206e6f74206265656e20736574000000000000600082015250565b6000613799601a83613619565b91506137a482613763565b602082019050919050565b600060208201905081810360008301526137c88161378c565b9050919050565b7f416d6f756e7420657863656564732073746174696f6e2073656c6c206361706160008201527f6369747900000000000000000000000000000000000000000000000000000000602082015250565b600061382b602483613619565b9150613836826137cf565b604082019050919050565b6000602082019050818103600083015261385a8161381e565b9050919050565b7f4e487b7100000000000000000000000000000000000000000000000000000000600052601160045260246000fd5b600061389b82612bfb565b91506138a683612bfb565b92508282026138b481612bfb565b915082820484148315176138cb576138ca613861565b5b5092915050565b60006138dd82612bfb565b91506138e883612bfb565b9250828201905080821115613900576138ff613861565b5b92915050565b7f496e76616c69642042616c616e63650000000000000000000000000000000000600082015250565b600061393c600f83613619565b915061394782613906565b602082019050919050565b6000602082019050818103600083015261396b8161392f565b9050919050565b7f4e6f742073746174696f6e206f776e6572000000000000000000000000000000600082015250565b60006139a8601183613619565b91506139b382613972565b602082019050919050565b600060208201905081810360008301526139d78161399b565b9050919050565b60006139e982612bfb565b91506139f483612bfb565b9250828203905081811115613a0c57613a0b613861565b5b92915050565b600081905092915050565b50565b6000613a2d600083613a12565b9150613a3882613a1d565b600082019050919050565b6000613a4e82613a20565b9150819050919050565b7f4661696c656420746f2073656e6420457468657220746f206f7267616e697a6160008201527f74696f6e00000000000000000000000000000000000000000000000000000000602082015250565b6000613ab4602483613619565b9150613abf82613a58565b604082019050919050565b60006020820190508181036000830152613ae381613aa7565b9050919050565b7f4661696c656420746f2073656e6420457468657220746f206f776e6572000000600082015250565b6000613b20601d83613619565b9150613b2b82613aea565b602082019050919050565b60006020820190508181036000830152613b4f81613b13565b9050919050565b7f4661696c656420746f2072657475726e20746f206f776e657200000000000000600082015250565b6000613b8c601983613619565b9150613b9782613b56565b602082019050919050565b60006020820190508181036000830152613bbb81613b7f565b9050919050565b7f596f7572206e6f7420636f6e7472616374206f776e6572000000000000000000600082015250565b6000613bf8601783613619565b9150613c0382613bc2565b602082019050919050565b60006020820190508181036000830152613c2781613beb565b9050919050565b6000604082019050613c4360008301856130d6565b613c506020830184613040565b9392505050565b7f4e487b7100000000000000000000000000000000000000000000000000000000600052602260045260246000fd5b60006002820490506001821680613c9e57607f821691505b602082108103613cb157613cb0613c57565b5b50919050565b60008190508160005260206000209050919050565b60006020601f8301049050919050565b600082821b905092915050565b600060088302613d197fffffffffffffffffffffffffffffffffffffffffffffffffffffffffffffffff82613cdc565b613d238683613cdc565b95508019841693508086168417925050509392505050565b6000819050919050565b6000613d60613d5b613d5684612bfb565b613d3b565b612bfb565b9050919050565b6000819050919050565b613d7a83613d45565b613d8e613d8682613d67565b848454613ce9565b825550505050565b600090565b613da3613d96565b613dae818484613d71565b505050565b5b81811015613dd257613dc7600082613d9b565b600181019050613db4565b5050565b601f821115613e1757613de881613cb7565b613df184613ccc565b81016020851015613e00578190505b613e14613e0c85613ccc565b830182613db3565b50505b505050565b600082821c905092915050565b6000613e3a60001984600802613e1c565b1980831691505092915050565b6000613e538383613e29565b9150826002028217905092915050565b613e6c8261318e565b67ffffffffffffffff811115613e8557613e84612d8f565b5b613e8f8254613c86565b613e9a828285613dd6565b600060209050601f831160018114613ecd5760008415613ebb578287015190505b613ec58582613e47565b865550613f2d565b601f198416613edb86613cb7565b60005b82811015613f0357848901518255600182019150602085019450602081019050613ede565b86831015613f205784890151613f1c601f891682613e29565b8355505b6001600288020188555050505b505050505050565b7f53656e646572206e6f74207768697465206c6973746564000000000000000000600082015250565b6000613f6b601783613619565b9150613f7682613f35565b602082019050919050565b60006020820190508181036000830152613f9a81613f5e565b9050919050565b6000604082019050613fb66000830185613040565b613fc36020830184612f4f565b9392505050565b7f537461727420696e6465782063616e6e6f742073757270617373207265636f7260008201527f6420616d6f756e74000000000000000000000000000000000000000000000000602082015250565b6000614026602883613619565b915061403182613fca565b604082019050919050565b6000602082019050818103600083015261405581614019565b9050919050565b7f4e487b7100000000000000000000000000000000000000000000000000000000600052603260045260246000fd5b600061409682612bfb565b91507fffffffffffffffffffffffffffffffffffffffffffffffffffffffffffffffff82036140c8576140c7613861565b5b600182019050919050565b7f53746174696f6e20737461727420696e6465782063616e6e6f7420737572706160008201527f73732073746174696f6e20616d6f756e74000000000000000000000000000000602082015250565b600061412f603183613619565b915061413a826140d3565b604082019050919050565b6000602082019050818103600083015261415e81614122565b9050919050565b7f53746174696f6e20616d6f756e742063616e6e6f74206265207a65726f000000600082015250565b600061419b601d83613619565b91506141a682614165565b602082019050919050565b600060208201905081810360008301526141ca8161418e565b905091905056fea264697066735822122086f1a0dee960e426dfdb1b3cf8f8a57b1dc9e40dc3e12c511812f7a27b10d88e64736f6c63430008130033",
  "immutableReferences": {},
  "source": "// SPDX-License-Identifier: MIT\npragma solidity ^0.8.9;\n\n// Make spectrum upgradable\ncontract Spectrum {\n\n    enum StationState {\n        Installed,\n        Monitored,\n        UnderMaintenance,\n        Dismantled, // Keep historic record of power stations\n        Online\n    }\n\n    enum GenerationType {\n        Solar,\n        Geothermal,\n        Wind,\n        Biomass,\n        Biofuels,\n        Hydropower,\n        Electricity,\n        Nuclear,\n        Coal,\n        Lignite,\n        NaturalGas,\n        Diesel,\n        Hydrocarbon\n    }\n\n    struct Coordinates {\n        uint256 lat;\n        uint256 long;\n    }\n\n    struct PowerStation {\n        uint256 stationId;\n        Coordinates location;\n\n        uint256 installedCapacity;\n        uint256 sellCapacity;\n\n        // only settable by the power authoritie\n        uint256 currentSurcharge;\n        bool surchargeIsSet; \n\n        uint256 targetReserveCapacity;\n\n        uint256 pricePerMW;\n\n        uint256 timeCreated;\n        uint256 lastUpdated;\n\n        GenerationType generationType;\n        StationState state;\n\n        // Ownership (changeable)\n        address organization;       // map organiztion back to string name\n    }\n\n    struct StationRecord {\n        uint256 reportDate; \n        string report; // this could either be a string or uri\n    }\n\n    uint256 private stationId = 0; // counter for station ids\n\n    // map station id to station struct\n    // use sql server for indexing / ownership / filtering\n    mapping(uint256 => PowerStation) private powerStations;\n    //PowerStation[] private powerStations;\n\n    // map station hash to station service record array\n    mapping(uint256 => StationRecord[]) private serviceRecords;\n\n    mapping(address => bool) private whitelist;\n\n    // contract owner\n    address private _powerAuthority; // power authoritie\n\n    // Events\n    event StationStateChanged(uint256 _stationId, StationState _stationState);\n    event StationOwnerChanged(uint256 _stationId, address _newOwner);\n\n    event StationCreated(uint256 _stationId);\n\n    event StationSellCapacityChanged(uint256 _stationId,uint256 _newSellCapacity);\n    event BuyStationCapacity(uint256 _stationId, uint256 _capacityBought);\n\n    event StationTargetReserveCapacityChanged(uint256 _stationId, uint256 _newtargetReserveCapacity);\n\n    event NewServiceEntry(uint256 _stationId,uint256 _entrySize);\n\n    event WhiteListUpdated(address _newAddress,bool _status);\n\n    event UpdateSurcharge(uint256 _stationId, uint256 _newSurcharge);\n\n    constructor() {\n        _powerAuthority = msg.sender;\n    }\n\n    // Modifiers\n    modifier onlyPowerAuthority() {\n        require(_powerAuthority == msg.sender,\"Your not contract owner\");\n        _;\n    }\n\n    modifier stationExist(uint256 _stationId) {\n        require(stationId >= _stationId, \"Station Id dosn't exist\");\n        _;\n    }\n\n    modifier onlyStationOwner(uint256 _stationId) {\n        require(powerStations[_stationId].organization == msg.sender,\"Your are not station owner\");\n        _;\n    }\n\n    modifier isSenderWhiteListed() {\n        require(whitelist[msg.sender],\"Sender not white listed\");\n        _;\n    }\n\n    function getOwner()\n    public\n    view\n    returns(address)\n    {\n        return(_powerAuthority);\n    }\n\n\n    /**\n     * @dev get array of stations \n     * \n     * param _startStationId starting index of stations\n     * param _amountOfStations amount of stations to populate return array\n     *\n     * array of PowerStations\n     */\n    function getStations(uint256 _startStationIndex,uint256 _amountOfStations)\n    public\n    view\n    returns(PowerStation[] memory)\n    {\n        require(_startStationIndex < stationId,\"Station start index cannot surpass station amount\");\n        require(_amountOfStations != 0,\"Station amount cannot be zero\");\n\n        uint256 newIndex = 0;\n        PowerStation[] memory tempList = new PowerStation[](_amountOfStations);\n\n        for(uint i = 0;i < _amountOfStations; i++){\n            tempList[newIndex] = powerStations[_startStationIndex + i];\n            newIndex += 1;\n        }\n        return (tempList);\n    }\n\n\n    /**\n     * @dev allows power authority to whitelist address\n     *\n     */\n    function setWhiteList(address _account, bool _isWhiteListed)\n    public\n    onlyPowerAuthority()\n    {\n        whitelist[_account] = _isWhiteListed;\n        emit WhiteListUpdated(_account,_isWhiteListed);\n    }\n\n    /**\n     * @dev allows power authority to whitelist address\n     *\n     */\n    function isWhiteListed(address _account)\n    public\n    view\n    returns(bool)\n    {\n        return(whitelist[_account]);\n    }\n\n    /**\n     * @dev amount of service records for given station\n     */\n    function getRecordCount(uint256 _stationId)\n    public\n    view\n    returns(uint256)\n    {\n        return(serviceRecords[_stationId].length);\n    }\n\n    /**\n     * @dev get amount of array of station records\n     */\n    function getStationAmount()\n    public\n    view\n    returns(uint256)\n    {\n        return(stationId);\n    }\n\n/************** Station Creation ***************/\n\n    /**\n     * @dev allows whitelist address to add a new power stations\n     * \n     * @param _lat latitude of station location\n     * @param _long  longitude of station location\n     * @param _installCapacity station install power capacity (MW)\n     * @param _sellCapacity station sell power capacity (MW)\n     * @param _pricePerMW  station price per MW\n     * @param _generationType station genration type\n     * @param _state init station state\n     * \n     */\n    function addStation(\n                        uint256 _lat, \n                        uint256 _long,\n                        uint256 _installCapacity,\n                        uint256 _sellCapacity,\n                        uint256 _pricePerMW,\n                        GenerationType _generationType,\n                        StationState _state\n                        )\n    public\n    isSenderWhiteListed()\n    {\n        // Set station coordinates\n        Coordinates memory coordinates;\n        coordinates.lat = _lat;\n        coordinates.long = _long;\n\n        // Set power station\n        PowerStation memory ps;\n        ps.location = coordinates;\n        ps.installedCapacity = _installCapacity;\n        ps.pricePerMW = _pricePerMW;\n        ps.sellCapacity = _sellCapacity;\n        ps.timeCreated = block.timestamp;\n        ps.lastUpdated = block.timestamp;\n        ps.generationType = _generationType;\n        ps.state = _state;\n        ps.organization = msg.sender;\n        ps.stationId = stationId;\n        // create power station id -> hash of power station\n        powerStations[stationId] = ps;\n        stationId += 1;\n\n        // emit station created event\n        emit StationCreated(stationId);\n    }\n\n/************** Station Surcharge ***************/\n\n    /**\n     * @dev allows power authority to set surcharge on stations\n     * \n     * Note Only callable by the power authority\n     * @param _stationId station id to update \n     * @param _newSurcharge new surcharge amount\n     * \n     */\n    function setSurcharge(uint256 _stationId, uint256 _newSurcharge)\n    public\n    onlyPowerAuthority()\n    stationExist(_stationId)\n    {\n        PowerStation memory ps = powerStations[_stationId];\n        ps.currentSurcharge = _newSurcharge;\n        ps.surchargeIsSet = true;\n        powerStations[_stationId] = ps;\n        emit UpdateSurcharge(_stationId, _newSurcharge);\n    }\n\n/************** Station Capacity ***************/\n\n    /**\n     * @dev allows station ownership to be change\n     *\n     * @param _stationId station id\n     * @param _newCapacity amount of new capacity \n     */\n    function updateStationSellCapacity(\n                                        uint256 _stationId,\n                                        uint256 _newCapacity\n                                      )\n    public\n    onlyStationOwner(_stationId)\n    stationExist(_stationId)\n    {\n        // get power station\n        PowerStation memory ps = powerStations[_stationId];\n        // TODO sell capacity cannot exceed install capacity\n        ps.sellCapacity = _newCapacity;\n        ps.lastUpdated = block.timestamp;\n        powerStations[_stationId] = ps;\n        emit StationSellCapacityChanged(_stationId,_newCapacity);\n    }\n\n    /**\n     * @dev allows station capacity to be bought\n     *\n     * Note Ideally buy capacity would only be used buy trusted entities\n     * @param _stationId station id\n     * @param _amount amount of power to be purchased\n     */\n    function buyCapacity(uint256 _stationId, uint256 _amount)\n    public\n    payable\n    stationExist(_stationId)\n    {\n\n        PowerStation memory ps = powerStations[_stationId];\n\n        // require station surcharge is set by PA\n        require(ps.surchargeIsSet,\"Surcharge has not been set\");\n\n        // require station has enough capacity\n        require(ps.sellCapacity > _amount,\"Amount exceeds station sell capacity\");\n\n        // Calculate price\n        uint256 surChargeAmount = ps.currentSurcharge * _amount;\n\n        uint256 buyAmount = ps.pricePerMW * _amount;\n\n        require(msg.value >= (buyAmount + surChargeAmount), \"Invalid Balance\");\n        // owner can not buy there own supply\n        require(ps.organization != msg.sender,\"Not station owner\");\n\n        ps.sellCapacity -= _amount; // reverts if underflow \n\n        // send eth from buyer to station owner\n        (bool sent, bytes memory data) = ps.organization.call{value:buyAmount}(\"\");\n        require(sent, \"Failed to send Ether to organization\");\n\n        // send eth from buyer to power authority for surcharge \n        (bool surChargeSent, bytes memory dataSurCharge) = _powerAuthority.call{value:surChargeAmount}(\"\");\n        require(surChargeSent, \"Failed to send Ether to owner\");\n\n        // send remaining back\n        uint256 returnAmount = msg.value - (surChargeAmount + buyAmount);\n        (bool returnSuccess, bytes memory ret) = msg.sender.call{value:returnAmount}(\"\");\n        require(returnSuccess, \"Failed to return to owner\");\n        \n        // Update power station\n        ps.lastUpdated = block.timestamp;\n        powerStations[_stationId] = ps;\n\n        emit BuyStationCapacity(_stationId, _amount);\n    }\n\n    /**\n     * @dev allows station reserve to be change from contract owner\n     * Look at docs for additional infomation on this mechanism\n     * Could add incetive on keeping reserve capacity\n     */\n    function targetReserveCapacity(uint256 _stationId, uint256 _newRate)\n    public\n    onlyStationOwner(_stationId)\n    stationExist(_stationId)\n    {\n        // TODO reserve capacity connot exceed reserve capacity\n        PowerStation memory ps = powerStations[_stationId];\n        ps.targetReserveCapacity = _newRate;\n        ps.lastUpdated = block.timestamp; // update timestamp\n        powerStations[_stationId] = ps;\n\n        emit StationTargetReserveCapacityChanged(_stationId, _newRate);\n    }\n\n/*************** Station Service Entry ****************/\n\n    /**\n     * @dev allows station reports to be documented on-chain\n     *\n     * @param _stationId station id\n     * @param _reportId url of station report\n     */\n    function newServiceEntry(uint256 _stationId, string memory _reportId)\n    public\n    onlyStationOwner(_stationId)\n    stationExist(_stationId)\n    {\n        StationRecord memory sr;\n        sr.report = _reportId;\n        sr.reportDate = block.timestamp; // add timestamp \n        serviceRecords[_stationId].push(sr);\n        // emit new service event\n        emit NewServiceEntry(_stationId, serviceRecords[_stationId].length);\n    }\n\n    /**\n     * @dev get array of station records\n     * \n     *\n     */\n    function getRecords(uint256 _stationId,uint256 _startRecordIndex, uint256 _amountOfStations)\n    public\n    view \n    returns(StationRecord[] memory)\n    {\n        require(serviceRecords[_stationId].length >= _amountOfStations, \"Start index cannot surpass record amount\");\n\n        uint256 newIndex = 0;\n        StationRecord[] memory tempList = new StationRecord[](_amountOfStations);\n\n        for(uint i = 0;i < _amountOfStations; i++){\n            tempList[newIndex] = serviceRecords[_stationId][_startRecordIndex + i];\n            newIndex += 1;\n        }\n        return (tempList);\n    }\n    \n/*************** Station State/Ownership ****************/\n\n    /**\n     * @dev allows station ownership to be change\n     *\n     *\n     */\n    function changeStationOwner(uint256 _stationId, address _newOwner)\n    public\n    onlyStationOwner(_stationId)\n    stationExist(_stationId)\n    {\n        PowerStation memory ps = powerStations[_stationId];\n        ps.organization = _newOwner;\n        ps.lastUpdated = block.timestamp;\n        powerStations[_stationId] = ps;\n        // emit station owner change\n        emit StationOwnerChanged(_stationId,_newOwner);\n    }\n\n\n    /**\n     * @dev allows station ownership to be change \n     *\n     *\n     */\n    function changeStationState(uint256 _stationId, StationState _newState)\n    public\n    onlyStationOwner(_stationId)\n    stationExist(_stationId)\n    {\n        PowerStation memory ps = powerStations[_stationId];\n        ps.state = _newState;\n        ps.lastUpdated = block.timestamp;\n        powerStations[_stationId] = ps;\n        emit StationStateChanged(_stationId,_newState);\n    }\n}",
  "sourcePath": "/Users/mitch/Documents/Hackathon/Spectrum/backend/SmartContracts/contracts/Spectrum.sol",
  "compiler": {
    "name": "solc",
    "version": "0.8.19+commit.7dd6d404.Emscripten.clang"
  },
  "schemaVersion": "3.4.13",
  "updatedAt": "2023-03-28T03:48:26.071Z",
  "networkType": "ethereum",
  "devdoc": {
    "kind": "dev",
    "methods": {
      "addStation(uint256,uint256,uint256,uint256,uint256,uint8,uint8)": {
        "details": "allows whitelist address to add a new power stations ",
        "params": {
          "_generationType": "station genration type",
          "_installCapacity": "station install power capacity (MW)",
          "_lat": "latitude of station location",
          "_long": "longitude of station location",
          "_pricePerMW": "station price per MW",
          "_sellCapacity": "station sell power capacity (MW)",
          "_state": "init station state "
        }
      },
      "buyCapacity(uint256,uint256)": {
        "details": "allows station capacity to be bought Note Ideally buy capacity would only be used buy trusted entities",
        "params": {
          "_amount": "amount of power to be purchased",
          "_stationId": "station id"
        }
      },
      "changeStationOwner(uint256,address)": {
        "details": "allows station ownership to be change"
      },
      "changeStationState(uint256,uint8)": {
        "details": "allows station ownership to be change "
      },
      "getRecordCount(uint256)": {
        "details": "amount of service records for given station"
      },
      "getRecords(uint256,uint256,uint256)": {
        "details": "get array of station records "
      },
      "getStationAmount()": {
        "details": "get amount of array of station records"
      },
      "getStations(uint256,uint256)": {
        "details": "get array of stations   param _startStationId starting index of stations param _amountOfStations amount of stations to populate return array array of PowerStations"
      },
      "isWhiteListed(address)": {
        "details": "allows power authority to whitelist address"
      },
      "newServiceEntry(uint256,string)": {
        "details": "allows station reports to be documented on-chain",
        "params": {
          "_reportId": "url of station report",
          "_stationId": "station id"
        }
      },
      "setSurcharge(uint256,uint256)": {
        "details": "allows power authority to set surcharge on stations  Note Only callable by the power authority",
        "params": {
          "_newSurcharge": "new surcharge amount ",
          "_stationId": "station id to update "
        }
      },
      "setWhiteList(address,bool)": {
        "details": "allows power authority to whitelist address"
      },
      "targetReserveCapacity(uint256,uint256)": {
        "details": "allows station reserve to be change from contract owner Look at docs for additional infomation on this mechanism Could add incetive on keeping reserve capacity"
      },
      "updateStationSellCapacity(uint256,uint256)": {
        "details": "allows station ownership to be change",
        "params": {
          "_newCapacity": "amount of new capacity ",
          "_stationId": "station id"
        }
      }
    },
    "version": 1
  },
  "userdoc": {
    "kind": "user",
    "methods": {},
    "version": 1
  }
}