{
  "contractName": "Spectrum",
  "abi": [
    {
      "inputs": [],
      "stateMutability": "nonpayable",
      "type": "constructor"
    },
    {
      "anonymous": false,
      "inputs": [
        {
          "indexed": false,
          "internalType": "uint256",
          "name": "_stationId",
          "type": "uint256"
        },
        {
          "indexed": false,
          "internalType": "uint256",
          "name": "_capacityBought",
          "type": "uint256"
        }
      ],
      "name": "BuyStationCapacity",
      "type": "event"
    },
    {
      "anonymous": false,
      "inputs": [
        {
          "indexed": false,
          "internalType": "uint256",
          "name": "_stationId",
          "type": "uint256"
        },
        {
          "indexed": false,
          "internalType": "uint256",
          "name": "_entrySize",
          "type": "uint256"
        }
      ],
      "name": "NewServiceEntry",
      "type": "event"
    },
    {
      "anonymous": false,
      "inputs": [
        {
          "indexed": false,
          "internalType": "uint256",
          "name": "_stationId",
          "type": "uint256"
        }
      ],
      "name": "StationCreated",
      "type": "event"
    },
    {
      "anonymous": false,
      "inputs": [
        {
          "indexed": false,
          "internalType": "uint256",
          "name": "_stationId",
          "type": "uint256"
        },
        {
          "indexed": false,
          "internalType": "address",
          "name": "_newOwner",
          "type": "address"
        }
      ],
      "name": "StationOwnerChanged",
      "type": "event"
    },
    {
      "anonymous": false,
      "inputs": [
        {
          "indexed": false,
          "internalType": "uint256",
          "name": "_stationId",
          "type": "uint256"
        },
        {
          "indexed": false,
          "internalType": "uint256",
          "name": "_newSellCapacity",
          "type": "uint256"
        }
      ],
      "name": "StationSellCapacityChanged",
      "type": "event"
    },
    {
      "anonymous": false,
      "inputs": [
        {
          "indexed": false,
          "internalType": "uint256",
          "name": "_stationId",
          "type": "uint256"
        },
        {
          "indexed": false,
          "internalType": "enum Spectrum.StationState",
          "name": "_stationState",
          "type": "uint8"
        }
      ],
      "name": "StationStateChanged",
      "type": "event"
    },
    {
      "anonymous": false,
      "inputs": [
        {
          "indexed": false,
          "internalType": "uint256",
          "name": "_stationId",
          "type": "uint256"
        },
        {
          "indexed": false,
          "internalType": "uint256",
          "name": "_newtargetReserveCapacity",
          "type": "uint256"
        }
      ],
      "name": "StationTargetReserveCapacityChanged",
      "type": "event"
    },
    {
      "anonymous": false,
      "inputs": [
        {
          "indexed": false,
          "internalType": "address",
          "name": "_newAddress",
          "type": "address"
        },
        {
          "indexed": false,
          "internalType": "bool",
          "name": "_status",
          "type": "bool"
        }
      ],
      "name": "WhiteListUpdated",
      "type": "event"
    },
    {
      "inputs": [],
      "name": "getOwner",
      "outputs": [
        {
          "internalType": "address",
          "name": "",
          "type": "address"
        }
      ],
      "stateMutability": "view",
      "type": "function"
    },
    {
      "inputs": [
        {
          "internalType": "uint256",
          "name": "_startStationIndex",
          "type": "uint256"
        },
        {
          "internalType": "uint256",
          "name": "_amountOfStations",
          "type": "uint256"
        }
      ],
      "name": "getStations",
      "outputs": [
        {
          "components": [
            {
              "components": [
                {
                  "internalType": "uint256",
                  "name": "lat",
                  "type": "uint256"
                },
                {
                  "internalType": "uint256",
                  "name": "long",
                  "type": "uint256"
                }
              ],
              "internalType": "struct Spectrum.Coordinates",
              "name": "location",
              "type": "tuple"
            },
            {
              "internalType": "uint256",
              "name": "installedCapacity",
              "type": "uint256"
            },
            {
              "internalType": "uint256",
              "name": "sellCapacity",
              "type": "uint256"
            },
            {
              "internalType": "uint256",
              "name": "targetReserveCapacity",
              "type": "uint256"
            },
            {
              "internalType": "uint256",
              "name": "pricePerMW",
              "type": "uint256"
            },
            {
              "internalType": "uint256",
              "name": "timeCreated",
              "type": "uint256"
            },
            {
              "internalType": "uint256",
              "name": "lastUpdated",
              "type": "uint256"
            },
            {
              "internalType": "enum Spectrum.GenerationType",
              "name": "generationType",
              "type": "uint8"
            },
            {
              "internalType": "enum Spectrum.StationState",
              "name": "state",
              "type": "uint8"
            },
            {
              "internalType": "address",
              "name": "organization",
              "type": "address"
            }
          ],
          "internalType": "struct Spectrum.PowerStation[]",
          "name": "",
          "type": "tuple[]"
        }
      ],
      "stateMutability": "view",
      "type": "function"
    },
    {
      "inputs": [
        {
          "internalType": "address",
          "name": "_account",
          "type": "address"
        },
        {
          "internalType": "bool",
          "name": "_isWhiteListed",
          "type": "bool"
        }
      ],
      "name": "setWhiteList",
      "outputs": [],
      "stateMutability": "nonpayable",
      "type": "function"
    },
    {
      "inputs": [
        {
          "internalType": "address",
          "name": "_account",
          "type": "address"
        }
      ],
      "name": "isWhiteListed",
      "outputs": [
        {
          "internalType": "bool",
          "name": "",
          "type": "bool"
        }
      ],
      "stateMutability": "view",
      "type": "function"
    },
    {
      "inputs": [
        {
          "internalType": "uint256",
          "name": "_stationId",
          "type": "uint256"
        }
      ],
      "name": "getRecordCount",
      "outputs": [
        {
          "internalType": "uint256",
          "name": "",
          "type": "uint256"
        }
      ],
      "stateMutability": "view",
      "type": "function"
    },
    {
      "inputs": [],
      "name": "getStationAmount",
      "outputs": [
        {
          "internalType": "uint256",
          "name": "",
          "type": "uint256"
        }
      ],
      "stateMutability": "view",
      "type": "function"
    },
    {
      "inputs": [
        {
          "internalType": "uint256",
          "name": "_lat",
          "type": "uint256"
        },
        {
          "internalType": "uint256",
          "name": "_long",
          "type": "uint256"
        },
        {
          "internalType": "uint256",
          "name": "_installCapacity",
          "type": "uint256"
        },
        {
          "internalType": "uint256",
          "name": "_sellCapacity",
          "type": "uint256"
        },
        {
          "internalType": "uint256",
          "name": "_pricePerMW",
          "type": "uint256"
        },
        {
          "internalType": "enum Spectrum.GenerationType",
          "name": "_generationType",
          "type": "uint8"
        },
        {
          "internalType": "enum Spectrum.StationState",
          "name": "_state",
          "type": "uint8"
        }
      ],
      "name": "addStation",
      "outputs": [],
      "stateMutability": "nonpayable",
      "type": "function"
    },
    {
      "inputs": [
        {
          "internalType": "uint256",
          "name": "_stationId",
          "type": "uint256"
        },
        {
          "internalType": "uint256",
          "name": "_newCapacity",
          "type": "uint256"
        }
      ],
      "name": "updateStationSellCapacity",
      "outputs": [],
      "stateMutability": "nonpayable",
      "type": "function"
    },
    {
      "inputs": [
        {
          "internalType": "uint256",
          "name": "_stationId",
          "type": "uint256"
        },
        {
          "internalType": "uint256",
          "name": "_amount",
          "type": "uint256"
        }
      ],
      "name": "buyCapacity",
      "outputs": [],
      "stateMutability": "payable",
      "type": "function"
    },
    {
      "inputs": [
        {
          "internalType": "uint256",
          "name": "_stationId",
          "type": "uint256"
        },
        {
          "internalType": "uint256",
          "name": "_newRate",
          "type": "uint256"
        }
      ],
      "name": "targetReserveCapacity",
      "outputs": [],
      "stateMutability": "nonpayable",
      "type": "function"
    },
    {
      "inputs": [
        {
          "internalType": "uint256",
          "name": "_stationId",
          "type": "uint256"
        },
        {
          "internalType": "string",
          "name": "reportId",
          "type": "string"
        }
      ],
      "name": "newServiceEntry",
      "outputs": [],
      "stateMutability": "nonpayable",
      "type": "function"
    },
    {
      "inputs": [
        {
          "internalType": "uint256",
          "name": "_stationId",
          "type": "uint256"
        },
        {
          "internalType": "uint256",
          "name": "_startRecordIndex",
          "type": "uint256"
        },
        {
          "internalType": "uint256",
          "name": "_amountOfStations",
          "type": "uint256"
        }
      ],
      "name": "getRecords",
      "outputs": [
        {
          "components": [
            {
              "internalType": "uint256",
              "name": "reportDate",
              "type": "uint256"
            },
            {
              "internalType": "string",
              "name": "report",
              "type": "string"
            }
          ],
          "internalType": "struct Spectrum.StationRecord[]",
          "name": "",
          "type": "tuple[]"
        }
      ],
      "stateMutability": "view",
      "type": "function"
    },
    {
      "inputs": [
        {
          "internalType": "uint256",
          "name": "_stationId",
          "type": "uint256"
        },
        {
          "internalType": "address",
          "name": "_newOwner",
          "type": "address"
        }
      ],
      "name": "changeStationOwner",
      "outputs": [],
      "stateMutability": "nonpayable",
      "type": "function"
    },
    {
      "inputs": [
        {
          "internalType": "uint256",
          "name": "_stationId",
          "type": "uint256"
        },
        {
          "internalType": "enum Spectrum.StationState",
          "name": "_newState",
          "type": "uint8"
        }
      ],
      "name": "changeStationState",
      "outputs": [],
      "stateMutability": "nonpayable",
      "type": "function"
    }
  ],
  "bytecode": "0x60806040526000805534801561001457600080fd5b5033600460006101000a81548173ffffffffffffffffffffffffffffffffffffffff021916908373ffffffffffffffffffffffffffffffffffffffff16021790555061356f806100656000396000f3fe6080604052600436106100dd5760003560e01c80638431b2741161007f5780639778a783116100595780639778a78314610285578063a7f6f9e5146102b0578063f2a57441146102ed578063fabe5d3c1461032a576100dd565b80638431b27414610208578063893d20e8146102315780638d14e1271461025c576100dd565b8063462a93e8116100bb578063462a93e814610150578063499215d5146101795780636f9170f6146101a25780637e4686c0146101df576100dd565b80631949b499146100e25780631a1ac3031461010b5780632f81ef4414610134575b600080fd5b3480156100ee57600080fd5b50610109600480360381019061010491906121e2565b610367565b005b34801561011757600080fd5b50610132600480360381019061012d9190612222565b6106f4565b005b61014e60048036038101906101499190612222565b610a5a565b005b34801561015c57600080fd5b50610177600480360381019061017291906122c0565b610eef565b005b34801561018557600080fd5b506101a0600480360381019061019b9190612446565b611284565b005b3480156101ae57600080fd5b506101c960048036038101906101c491906124a2565b6113f8565b6040516101d691906124ea565b60405180910390f35b3480156101eb57600080fd5b506102066004803603810190610201919061252a565b61144e565b005b34801561021457600080fd5b5061022f600480360381019061022a9190612222565b61174c565b005b34801561023d57600080fd5b50610246611ab2565b60405161025391906125db565b60405180910390f35b34801561026857600080fd5b50610283600480360381019061027e9190612622565b611adc565b005b34801561029157600080fd5b5061029a611c00565b6040516102a79190612671565b60405180910390f35b3480156102bc57600080fd5b506102d760048036038101906102d2919061268c565b611c09565b6040516102e4919061286c565b60405180910390f35b3480156102f957600080fd5b50610314600480360381019061030f919061288e565b611df9565b6040516103219190612671565b60405180910390f35b34801561033657600080fd5b50610351600480360381019061034c9190612222565b611e19565b60405161035e9190612b35565b60405180910390f35b813373ffffffffffffffffffffffffffffffffffffffff166001600083815260200190815260200160002060080160029054906101000a900473ffffffffffffffffffffffffffffffffffffffff1673ffffffffffffffffffffffffffffffffffffffff160361040c576040517f08c379a000000000000000000000000000000000000000000000000000000000815260040161040390612bb4565b60405180910390fd5b60006001600085815260200190815260200160002060405180610140016040529081600082016040518060400160405290816000820154815260200160018201548152505081526020016002820154815260200160038201548152602001600482015481526020016005820154815260200160068201548152602001600782015481526020016008820160009054906101000a900460ff16600c8111156104b6576104b5612916565b5b600c8111156104c8576104c7612916565b5b81526020016008820160019054906101000a900460ff1660048111156104f1576104f0612916565b5b600481111561050357610502612916565b5b81526020016008820160029054906101000a900473ffffffffffffffffffffffffffffffffffffffff1673ffffffffffffffffffffffffffffffffffffffff1673ffffffffffffffffffffffffffffffffffffffff1681525050905082816101000190600481111561057857610577612916565b5b9081600481111561058c5761058b612916565b5b81525050428160c00181815250508060016000868152602001908152602001600020600082015181600001600082015181600001556020820151816001015550506020820151816002015560408201518160030155606082015181600401556080820151816005015560a0820151816006015560c0820151816007015560e08201518160080160006101000a81548160ff0219169083600c81111561063457610633612916565b5b02179055506101008201518160080160016101000a81548160ff0219169083600481111561066557610664612916565b5b02179055506101208201518160080160026101000a81548173ffffffffffffffffffffffffffffffffffffffff021916908373ffffffffffffffffffffffffffffffffffffffff1602179055509050507f3e5c5314cc4d1e6645b5cd322e50a545b9bc45c0a9b7e9e8f76110988b9ff7df84846040516106e6929190612be3565b60405180910390a150505050565b813373ffffffffffffffffffffffffffffffffffffffff166001600083815260200190815260200160002060080160029054906101000a900473ffffffffffffffffffffffffffffffffffffffff1673ffffffffffffffffffffffffffffffffffffffff1603610799576040517f08c379a000000000000000000000000000000000000000000000000000000000815260040161079090612bb4565b60405180910390fd5b60006001600085815260200190815260200160002060405180610140016040529081600082016040518060400160405290816000820154815260200160018201548152505081526020016002820154815260200160038201548152602001600482015481526020016005820154815260200160068201548152602001600782015481526020016008820160009054906101000a900460ff16600c81111561084357610842612916565b5b600c81111561085557610854612916565b5b81526020016008820160019054906101000a900460ff16600481111561087e5761087d612916565b5b60048111156108905761088f612916565b5b81526020016008820160029054906101000a900473ffffffffffffffffffffffffffffffffffffffff1673ffffffffffffffffffffffffffffffffffffffff1673ffffffffffffffffffffffffffffffffffffffff1681525050905082816040018181525050428160c00181815250508060016000868152602001908152602001600020600082015181600001600082015181600001556020820151816001015550506020820151816002015560408201518160030155606082015181600401556080820151816005015560a0820151816006015560c0820151816007015560e08201518160080160006101000a81548160ff0219169083600c81111561099a57610999612916565b5b02179055506101008201518160080160016101000a81548160ff021916908360048111156109cb576109ca612916565b5b02179055506101208201518160080160026101000a81548173ffffffffffffffffffffffffffffffffffffffff021916908373ffffffffffffffffffffffffffffffffffffffff1602179055509050507f7062361db41bcc66e0bc827fe996aae742f83c382763c1dedf1d87827ffe16878484604051610a4c929190612c0c565b60405180910390a150505050565b60006001600084815260200190815260200160002060405180610140016040529081600082016040518060400160405290816000820154815260200160018201548152505081526020016002820154815260200160038201548152602001600482015481526020016005820154815260200160068201548152602001600782015481526020016008820160009054906101000a900460ff16600c811115610b0457610b03612916565b5b600c811115610b1657610b15612916565b5b81526020016008820160019054906101000a900460ff166004811115610b3f57610b3e612916565b5b6004811115610b5157610b50612916565b5b81526020016008820160029054906101000a900473ffffffffffffffffffffffffffffffffffffffff1673ffffffffffffffffffffffffffffffffffffffff1673ffffffffffffffffffffffffffffffffffffffff1681525050905081816040015111610bf3576040517f08c379a0000000000000000000000000000000000000000000000000000000008152600401610bea90612ca7565b60405180910390fd5b6000828260800151610c059190612cf6565b905080341015610c4a576040517f08c379a0000000000000000000000000000000000000000000000000000000008152600401610c4190612d84565b60405180910390fd5b3373ffffffffffffffffffffffffffffffffffffffff1682610120015173ffffffffffffffffffffffffffffffffffffffff1603610cbd576040517f08c379a0000000000000000000000000000000000000000000000000000000008152600401610cb490612df0565b60405180910390fd5b8282604001818151610ccf9190612e10565b91508181525050428260c00181815250508160016000868152602001908152602001600020600082015181600001600082015181600001556020820151816001015550506020820151816002015560408201518160030155606082015181600401556080820151816005015560a0820151816006015560c0820151816007015560e08201518160080160006101000a81548160ff0219169083600c811115610d7a57610d79612916565b5b02179055506101008201518160080160016101000a81548160ff02191690836004811115610dab57610daa612916565b5b02179055506101208201518160080160026101000a81548173ffffffffffffffffffffffffffffffffffffffff021916908373ffffffffffffffffffffffffffffffffffffffff16021790555090505060008083610120015173ffffffffffffffffffffffffffffffffffffffff1683604051610e2790612e75565b60006040518083038185875af1925050503d8060008114610e64576040519150601f19603f3d011682016040523d82523d6000602084013e610e69565b606091505b509150915081610eae576040517f08c379a0000000000000000000000000000000000000000000000000000000008152600401610ea590612ed6565b60405180910390fd5b7f334e6d8556077c45cfd7f8b1c39bd04ebd753cabdd8da33d4e72facde1dd9a0f8686604051610edf929190612c0c565b60405180910390a1505050505050565b813373ffffffffffffffffffffffffffffffffffffffff166001600083815260200190815260200160002060080160029054906101000a900473ffffffffffffffffffffffffffffffffffffffff1673ffffffffffffffffffffffffffffffffffffffff1603610f94576040517f08c379a0000000000000000000000000000000000000000000000000000000008152600401610f8b90612bb4565b60405180910390fd5b60006001600085815260200190815260200160002060405180610140016040529081600082016040518060400160405290816000820154815260200160018201548152505081526020016002820154815260200160038201548152602001600482015481526020016005820154815260200160068201548152602001600782015481526020016008820160009054906101000a900460ff16600c81111561103e5761103d612916565b5b600c8111156110505761104f612916565b5b81526020016008820160019054906101000a900460ff16600481111561107957611078612916565b5b600481111561108b5761108a612916565b5b81526020016008820160029054906101000a900473ffffffffffffffffffffffffffffffffffffffff1673ffffffffffffffffffffffffffffffffffffffff1673ffffffffffffffffffffffffffffffffffffffff168152505090508281610120019073ffffffffffffffffffffffffffffffffffffffff16908173ffffffffffffffffffffffffffffffffffffffff1681525050428160c00181815250508060016000868152602001908152602001600020600082015181600001600082015181600001556020820151816001015550506020820151816002015560408201518160030155606082015181600401556080820151816005015560a0820151816006015560c0820151816007015560e08201518160080160006101000a81548160ff0219169083600c8111156111c4576111c3612916565b5b02179055506101008201518160080160016101000a81548160ff021916908360048111156111f5576111f4612916565b5b02179055506101208201518160080160026101000a81548173ffffffffffffffffffffffffffffffffffffffff021916908373ffffffffffffffffffffffffffffffffffffffff1602179055509050507f9d408f38b8860ad6809070bda69fa2711a5bb24601c845543f17696da14d6ad28484604051611276929190612ef6565b60405180910390a150505050565b813373ffffffffffffffffffffffffffffffffffffffff166001600083815260200190815260200160002060080160029054906101000a900473ffffffffffffffffffffffffffffffffffffffff1673ffffffffffffffffffffffffffffffffffffffff1603611329576040517f08c379a000000000000000000000000000000000000000000000000000000000815260040161132090612bb4565b60405180910390fd5b6113316120ac565b82816020018190525042816000018181525050600260008581526020019081526020016000208190806001815401808255809150506001900390600052602060002090600202016000909190919091506000820151816000015560208201518160010190816113a0919061312b565b5050507fa307fcc2482523f8163824b87b590e3d56cf1e3033f8bb817d50914c19744e648460026000878152602001908152602001600020805490506040516113ea929190612c0c565b60405180910390a150505050565b6000600360008373ffffffffffffffffffffffffffffffffffffffff1673ffffffffffffffffffffffffffffffffffffffff16815260200190815260200160002060009054906101000a900460ff169050919050565b600360003373ffffffffffffffffffffffffffffffffffffffff1673ffffffffffffffffffffffffffffffffffffffff16815260200190815260200160002060009054906101000a900460ff166114da576040517f08c379a00000000000000000000000000000000000000000000000000000000081526004016114d190613249565b60405180910390fd5b6114e26120c6565b87816000018181525050868160200181815250506114fe6120e0565b818160000181905250868160200181815250508481608001818152505085816040018181525050428160a0018181525050428160c0018181525050838160e00190600c81111561155157611550612916565b5b9081600c81111561156557611564612916565b5b8152505082816101000190600481111561158257611581612916565b5b9081600481111561159657611595612916565b5b815250503381610120019073ffffffffffffffffffffffffffffffffffffffff16908173ffffffffffffffffffffffffffffffffffffffff1681525050806001600080548152602001908152602001600020600082015181600001600082015181600001556020820151816001015550506020820151816002015560408201518160030155606082015181600401556080820151816005015560a0820151816006015560c0820151816007015560e08201518160080160006101000a81548160ff0219169083600c81111561166e5761166d612916565b5b02179055506101008201518160080160016101000a81548160ff0219169083600481111561169f5761169e612916565b5b02179055506101208201518160080160026101000a81548173ffffffffffffffffffffffffffffffffffffffff021916908373ffffffffffffffffffffffffffffffffffffffff16021790555090505060016000808282546117019190613269565b925050819055507f9fbf38f0b83106cb6d5a46e2eb2730f46db7826fe4a95964d233cc4ca65417a56000546040516117399190612671565b60405180910390a1505050505050505050565b813373ffffffffffffffffffffffffffffffffffffffff166001600083815260200190815260200160002060080160029054906101000a900473ffffffffffffffffffffffffffffffffffffffff1673ffffffffffffffffffffffffffffffffffffffff16036117f1576040517f08c379a00000000000000000000000000000000000000000000000000000000081526004016117e890612bb4565b60405180910390fd5b60006001600085815260200190815260200160002060405180610140016040529081600082016040518060400160405290816000820154815260200160018201548152505081526020016002820154815260200160038201548152602001600482015481526020016005820154815260200160068201548152602001600782015481526020016008820160009054906101000a900460ff16600c81111561189b5761189a612916565b5b600c8111156118ad576118ac612916565b5b81526020016008820160019054906101000a900460ff1660048111156118d6576118d5612916565b5b60048111156118e8576118e7612916565b5b81526020016008820160029054906101000a900473ffffffffffffffffffffffffffffffffffffffff1673ffffffffffffffffffffffffffffffffffffffff1673ffffffffffffffffffffffffffffffffffffffff1681525050905082816060018181525050428160c00181815250508060016000868152602001908152602001600020600082015181600001600082015181600001556020820151816001015550506020820151816002015560408201518160030155606082015181600401556080820151816005015560a0820151816006015560c0820151816007015560e08201518160080160006101000a81548160ff0219169083600c8111156119f2576119f1612916565b5b02179055506101008201518160080160016101000a81548160ff02191690836004811115611a2357611a22612916565b5b02179055506101208201518160080160026101000a81548173ffffffffffffffffffffffffffffffffffffffff021916908373ffffffffffffffffffffffffffffffffffffffff1602179055509050507fcfacc9926e2e58c32236421197bc1f6d940c590bffc1aebff1aede1f0aa18aed8484604051611aa4929190612c0c565b60405180910390a150505050565b6000600460009054906101000a900473ffffffffffffffffffffffffffffffffffffffff16905090565b3373ffffffffffffffffffffffffffffffffffffffff16600460009054906101000a900473ffffffffffffffffffffffffffffffffffffffff1673ffffffffffffffffffffffffffffffffffffffff1614611b6c576040517f08c379a0000000000000000000000000000000000000000000000000000000008152600401611b63906132e9565b60405180910390fd5b80600360008473ffffffffffffffffffffffffffffffffffffffff1673ffffffffffffffffffffffffffffffffffffffff16815260200190815260200160002060006101000a81548160ff0219169083151502179055507fb1288e9f7bae3599e10819d5553febea48e11a6f8f585b32c8abad397dd2627e8282604051611bf4929190613309565b60405180910390a15050565b60008054905090565b606081600260008681526020019081526020016000208054905010611c63576040517f08c379a0000000000000000000000000000000000000000000000000000000008152600401611c5a906133a4565b60405180910390fd5b6000808367ffffffffffffffff811115611c8057611c7f61231b565b5b604051908082528060200260200182016040528015611cb957816020015b611ca66120ac565b815260200190600190039081611c9e5790505b50905060005b84811015611dec57600260008881526020019081526020016000208187611ce69190613269565b81548110611cf757611cf66133c4565b5b906000526020600020906002020160405180604001604052908160008201548152602001600182018054611d2a90612f4e565b80601f0160208091040260200160405190810160405280929190818152602001828054611d5690612f4e565b8015611da35780601f10611d7857610100808354040283529160200191611da3565b820191906000526020600020905b815481529060010190602001808311611d8657829003601f168201915b505050505081525050828481518110611dbf57611dbe6133c4565b5b6020026020010181905250600183611dd79190613269565b92508080611de4906133f3565b915050611cbf565b5080925050509392505050565b600060026000838152602001908152602001600020805490509050919050565b60606000548310611e5f576040517f08c379a0000000000000000000000000000000000000000000000000000000008152600401611e56906134ad565b60405180910390fd5b60008203611ea2576040517f08c379a0000000000000000000000000000000000000000000000000000000008152600401611e9990613519565b60405180910390fd5b6000808367ffffffffffffffff811115611ebf57611ebe61231b565b5b604051908082528060200260200182016040528015611ef857816020015b611ee56120e0565b815260200190600190039081611edd5790505b50905060005b848110156120a057600160008288611f169190613269565b815260200190815260200160002060405180610140016040529081600082016040518060400160405290816000820154815260200160018201548152505081526020016002820154815260200160038201548152602001600482015481526020016005820154815260200160068201548152602001600782015481526020016008820160009054906101000a900460ff16600c811115611fb957611fb8612916565b5b600c811115611fcb57611fca612916565b5b81526020016008820160019054906101000a900460ff166004811115611ff457611ff3612916565b5b600481111561200657612005612916565b5b81526020016008820160029054906101000a900473ffffffffffffffffffffffffffffffffffffffff1673ffffffffffffffffffffffffffffffffffffffff1673ffffffffffffffffffffffffffffffffffffffff1681525050828481518110612073576120726133c4565b5b602002602001018190525060018361208b9190613269565b92508080612098906133f3565b915050611efe565b50809250505092915050565b604051806040016040528060008152602001606081525090565b604051806040016040528060008152602001600081525090565b6040518061014001604052806120f46120c6565b81526020016000815260200160008152602001600081526020016000815260200160008152602001600081526020016000600c81111561213757612136612916565b5b8152602001600060048111156121505761214f612916565b5b8152602001600073ffffffffffffffffffffffffffffffffffffffff1681525090565b6000604051905090565b600080fd5b600080fd5b6000819050919050565b61219a81612187565b81146121a557600080fd5b50565b6000813590506121b781612191565b92915050565b600581106121ca57600080fd5b50565b6000813590506121dc816121bd565b92915050565b600080604083850312156121f9576121f861217d565b5b6000612207858286016121a8565b9250506020612218858286016121cd565b9150509250929050565b600080604083850312156122395761223861217d565b5b6000612247858286016121a8565b9250506020612258858286016121a8565b9150509250929050565b600073ffffffffffffffffffffffffffffffffffffffff82169050919050565b600061228d82612262565b9050919050565b61229d81612282565b81146122a857600080fd5b50565b6000813590506122ba81612294565b92915050565b600080604083850312156122d7576122d661217d565b5b60006122e5858286016121a8565b92505060206122f6858286016122ab565b9150509250929050565b600080fd5b600080fd5b6000601f19601f8301169050919050565b7f4e487b7100000000000000000000000000000000000000000000000000000000600052604160045260246000fd5b6123538261230a565b810181811067ffffffffffffffff821117156123725761237161231b565b5b80604052505050565b6000612385612173565b9050612391828261234a565b919050565b600067ffffffffffffffff8211156123b1576123b061231b565b5b6123ba8261230a565b9050602081019050919050565b82818337600083830152505050565b60006123e96123e484612396565b61237b565b90508281526020810184848401111561240557612404612305565b5b6124108482856123c7565b509392505050565b600082601f83011261242d5761242c612300565b5b813561243d8482602086016123d6565b91505092915050565b6000806040838503121561245d5761245c61217d565b5b600061246b858286016121a8565b925050602083013567ffffffffffffffff81111561248c5761248b612182565b5b61249885828601612418565b9150509250929050565b6000602082840312156124b8576124b761217d565b5b60006124c6848285016122ab565b91505092915050565b60008115159050919050565b6124e4816124cf565b82525050565b60006020820190506124ff60008301846124db565b92915050565b600d811061251257600080fd5b50565b60008135905061252481612505565b92915050565b600080600080600080600060e0888a0312156125495761254861217d565b5b60006125578a828b016121a8565b97505060206125688a828b016121a8565b96505060406125798a828b016121a8565b955050606061258a8a828b016121a8565b945050608061259b8a828b016121a8565b93505060a06125ac8a828b01612515565b92505060c06125bd8a828b016121cd565b91505092959891949750929550565b6125d581612282565b82525050565b60006020820190506125f060008301846125cc565b92915050565b6125ff816124cf565b811461260a57600080fd5b50565b60008135905061261c816125f6565b92915050565b600080604083850312156126395761263861217d565b5b6000612647858286016122ab565b92505060206126588582860161260d565b9150509250929050565b61266b81612187565b82525050565b60006020820190506126866000830184612662565b92915050565b6000806000606084860312156126a5576126a461217d565b5b60006126b3868287016121a8565b93505060206126c4868287016121a8565b92505060406126d5868287016121a8565b9150509250925092565b600081519050919050565b600082825260208201905092915050565b6000819050602082019050919050565b61271481612187565b82525050565b600081519050919050565b600082825260208201905092915050565b60005b83811015612754578082015181840152602081019050612739565b60008484015250505050565b600061276b8261271a565b6127758185612725565b9350612785818560208601612736565b61278e8161230a565b840191505092915050565b60006040830160008301516127b1600086018261270b565b50602083015184820360208601526127c98282612760565b9150508091505092915050565b60006127e28383612799565b905092915050565b6000602082019050919050565b6000612802826126df565b61280c81856126ea565b93508360208202850161281e856126fb565b8060005b8581101561285a578484038952815161283b85826127d6565b9450612846836127ea565b925060208a01995050600181019050612822565b50829750879550505050505092915050565b6000602082019050818103600083015261288681846127f7565b905092915050565b6000602082840312156128a4576128a361217d565b5b60006128b2848285016121a8565b91505092915050565b600081519050919050565b600082825260208201905092915050565b6000819050602082019050919050565b6040820160008201516128fd600085018261270b565b506020820151612910602085018261270b565b50505050565b7f4e487b7100000000000000000000000000000000000000000000000000000000600052602160045260246000fd5b600d811061295657612955612916565b5b50565b600081905061296782612945565b919050565b600061297782612959565b9050919050565b6129878161296c565b82525050565b6005811061299e5761299d612916565b5b50565b60008190506129af8261298d565b919050565b60006129bf826129a1565b9050919050565b6129cf816129b4565b82525050565b6129de81612282565b82525050565b610160820160008201516129fb60008501826128e7565b506020820151612a0e604085018261270b565b506040820151612a21606085018261270b565b506060820151612a34608085018261270b565b506080820151612a4760a085018261270b565b5060a0820151612a5a60c085018261270b565b5060c0820151612a6d60e085018261270b565b5060e0820151612a8161010085018261297e565b50610100820151612a966101208501826129c6565b50610120820151612aab6101408501826129d5565b50505050565b6000612abd83836129e4565b6101608301905092915050565b6000602082019050919050565b6000612ae2826128bb565b612aec81856128c6565b9350612af7836128d7565b8060005b83811015612b28578151612b0f8882612ab1565b9750612b1a83612aca565b925050600181019050612afb565b5085935050505092915050565b60006020820190508181036000830152612b4f8184612ad7565b905092915050565b600082825260208201905092915050565b7f596f757220617265206e6f742073746174696f6e206f776e6572000000000000600082015250565b6000612b9e601a83612b57565b9150612ba982612b68565b602082019050919050565b60006020820190508181036000830152612bcd81612b91565b9050919050565b612bdd816129b4565b82525050565b6000604082019050612bf86000830185612662565b612c056020830184612bd4565b9392505050565b6000604082019050612c216000830185612662565b612c2e6020830184612662565b9392505050565b7f416d6f756e7420657863656564732073746174696f6e2073656c6c206361706160008201527f6369747900000000000000000000000000000000000000000000000000000000602082015250565b6000612c91602483612b57565b9150612c9c82612c35565b604082019050919050565b60006020820190508181036000830152612cc081612c84565b9050919050565b7f4e487b7100000000000000000000000000000000000000000000000000000000600052601160045260246000fd5b6000612d0182612187565b9150612d0c83612187565b9250828202612d1a81612187565b91508282048414831517612d3157612d30612cc7565b5b5092915050565b7f496e76616c69642042616c616e63650000000000000000000000000000000000600082015250565b6000612d6e600f83612b57565b9150612d7982612d38565b602082019050919050565b60006020820190508181036000830152612d9d81612d61565b9050919050565b7f4e6f742073746174696f6e206f776e6572000000000000000000000000000000600082015250565b6000612dda601183612b57565b9150612de582612da4565b602082019050919050565b60006020820190508181036000830152612e0981612dcd565b9050919050565b6000612e1b82612187565b9150612e2683612187565b9250828203905081811115612e3e57612e3d612cc7565b5b92915050565b600081905092915050565b50565b6000612e5f600083612e44565b9150612e6a82612e4f565b600082019050919050565b6000612e8082612e52565b9150819050919050565b7f4661696c656420746f2073656e64204574686572000000000000000000000000600082015250565b6000612ec0601483612b57565b9150612ecb82612e8a565b602082019050919050565b60006020820190508181036000830152612eef81612eb3565b9050919050565b6000604082019050612f0b6000830185612662565b612f1860208301846125cc565b9392505050565b7f4e487b7100000000000000000000000000000000000000000000000000000000600052602260045260246000fd5b60006002820490506001821680612f6657607f821691505b602082108103612f7957612f78612f1f565b5b50919050565b60008190508160005260206000209050919050565b60006020601f8301049050919050565b600082821b905092915050565b600060088302612fe17fffffffffffffffffffffffffffffffffffffffffffffffffffffffffffffffff82612fa4565b612feb8683612fa4565b95508019841693508086168417925050509392505050565b6000819050919050565b600061302861302361301e84612187565b613003565b612187565b9050919050565b6000819050919050565b6130428361300d565b61305661304e8261302f565b848454612fb1565b825550505050565b600090565b61306b61305e565b613076818484613039565b505050565b5b8181101561309a5761308f600082613063565b60018101905061307c565b5050565b601f8211156130df576130b081612f7f565b6130b984612f94565b810160208510156130c8578190505b6130dc6130d485612f94565b83018261307b565b50505b505050565b600082821c905092915050565b6000613102600019846008026130e4565b1980831691505092915050565b600061311b83836130f1565b9150826002028217905092915050565b6131348261271a565b67ffffffffffffffff81111561314d5761314c61231b565b5b6131578254612f4e565b61316282828561309e565b600060209050601f8311600181146131955760008415613183578287015190505b61318d858261310f565b8655506131f5565b601f1984166131a386612f7f565b60005b828110156131cb578489015182556001820191506020850194506020810190506131a6565b868310156131e857848901516131e4601f8916826130f1565b8355505b6001600288020188555050505b505050505050565b7f53656e646572206e6f74207768697465206c6973746564000000000000000000600082015250565b6000613233601783612b57565b915061323e826131fd565b602082019050919050565b6000602082019050818103600083015261326281613226565b9050919050565b600061327482612187565b915061327f83612187565b925082820190508082111561329757613296612cc7565b5b92915050565b7f596f7572206e6f7420636f6e7472616374206f776e6572000000000000000000600082015250565b60006132d3601783612b57565b91506132de8261329d565b602082019050919050565b60006020820190508181036000830152613302816132c6565b9050919050565b600060408201905061331e60008301856125cc565b61332b60208301846124db565b9392505050565b7f537461727420696e6465782063616e6e6f742073757270617373207265636f7260008201527f6420616d6f756e74000000000000000000000000000000000000000000000000602082015250565b600061338e602883612b57565b915061339982613332565b604082019050919050565b600060208201905081810360008301526133bd81613381565b9050919050565b7f4e487b7100000000000000000000000000000000000000000000000000000000600052603260045260246000fd5b60006133fe82612187565b91507fffffffffffffffffffffffffffffffffffffffffffffffffffffffffffffffff82036134305761342f612cc7565b5b600182019050919050565b7f53746174696f6e20737461727420696e6465782063616e6e6f7420737572706160008201527f73732073746174696f6e20616d6f756e74000000000000000000000000000000602082015250565b6000613497603183612b57565b91506134a28261343b565b604082019050919050565b600060208201905081810360008301526134c68161348a565b9050919050565b7f53746174696f6e20616d6f756e742063616e6e6f74206265207a65726f000000600082015250565b6000613503601d83612b57565b915061350e826134cd565b602082019050919050565b60006020820190508181036000830152613532816134f6565b905091905056fea264697066735822122061ced9eb042f16c3ecedd1fb76f7dcb881639f01fab989ccb540a5fc79632a0464736f6c63430008130033",
  "immutableReferences": {},
  "source": "// SPDX-License-Identifier: MIT\npragma solidity ^0.8.9;\n\n// Make spectrum upgradable\ncontract Spectrum {\n\n    enum StationState {\n        Installed,\n        Monitored,\n        UnderMaintenance,\n        Dismantled, // Keep historic record of power station\n        Online\n    }\n\n    enum GenerationType {\n        Solar,\n        Geothermal,\n        Wind,\n        Biomass,\n        Biofuels,\n        Hydropower,\n        Electricity,\n        Nuclear,\n        Coal,\n        Lignite,\n        NaturalGas,\n        Diesel,\n        Hydrocarbon\n    }\n\n    struct Coordinates {\n        uint256 lat;\n        uint256 long;\n    }\n\n    struct PowerStation {\n        Coordinates location;\n\n        uint256 installedCapacity;\n        uint256 sellCapacity;\n        uint256 targetReserveCapacity;\n\n        uint256 pricePerMW;\n\n        uint256 timeCreated;\n        uint256 lastUpdated;\n\n        GenerationType generationType;\n        StationState state;\n\n        // Ownership (changeable)\n        address organization;       // map organiztion back to string name\n    }\n\n    struct StationRecord {\n        uint256 reportDate; \n        string report; // this could either be a string or uri\n    }\n\n    uint256 private stationId = 0; // counter for station ids\n\n    // map station id to station struct\n    // use sql server for indexing / ownership / filtering\n    mapping(uint256 => PowerStation) private powerStations;\n\n    // map station hash to station service record array\n    mapping(uint256 => StationRecord[]) private serviceRecords;\n\n    mapping(address => bool) private whitelist;\n\n    // contract owner\n    address private _contractOwner;\n\n    // Events\n    event StationStateChanged(uint256 _stationId, StationState _stationState);\n    event StationOwnerChanged(uint256 _stationId, address _newOwner);\n\n    event StationCreated(uint256 _stationId);\n\n    event StationSellCapacityChanged(uint256 _stationId,uint256 _newSellCapacity);\n    event BuyStationCapacity(uint256 _stationId, uint256 _capacityBought);\n\n    event StationTargetReserveCapacityChanged(uint256 _stationId, uint256 _newtargetReserveCapacity);\n\n    event NewServiceEntry(uint256 _stationId,uint256 _entrySize);\n\n    event WhiteListUpdated(address _newAddress,bool _status);\n\n    constructor() {\n        _contractOwner = msg.sender;\n    }\n\n    // Modifiers\n    modifier onlyContractOwner() {\n        require(_contractOwner == msg.sender,\"Your not contract owner\");\n        _;\n    }\n\n    modifier onlyStationOwner(uint256 _stationId) {\n        require(powerStations[_stationId].organization != msg.sender,\"Your are not station owner\");\n        _;\n    }\n\n    modifier isSenderWhiteListed() {\n        //require(whitelist[msg.sender] == 0,\"Sender not white listed\");\n        require(whitelist[msg.sender],\"Sender not white listed\");\n        _;\n    }\n\n    function getOwner()\n    public\n    view\n    returns(address)\n    {\n        return(_contractOwner);\n    }\n\n    /**\n     * @dev get array of stations \n     * \n     * param _startStationId starting index of stations\n     * param _amountOfStations amount of stations to populate return array\n     *\n     * array of PowerStations\n     */\n    function getStations(uint256 _startStationIndex,uint256 _amountOfStations)\n    public \n    view\n    returns(PowerStation[] memory)\n    {\n        require(_startStationIndex < stationId,\"Station start index cannot surpass station amount\");\n        require(_amountOfStations != 0,\"Station amount cannot be zero\");\n\n        uint256 newIndex = 0;\n\n        PowerStation[] memory tempList = new PowerStation[](_amountOfStations);\n\n        for(uint i = 0;i < _amountOfStations; i++){\n            tempList[newIndex] = powerStations[_startStationIndex + i];\n            newIndex += 1;\n        }\n        return (tempList);\n    }\n\n    /**\n     * @dev allows contract owner to whitelist address\n     */\n    function setWhiteList(address _account, bool _isWhiteListed)\n    public\n    onlyContractOwner()\n    {\n        whitelist[_account] = _isWhiteListed;\n        emit WhiteListUpdated(_account,_isWhiteListed);\n    }\n\n\n    /**\n     * @dev allows contract owner to whitelist address\n     *\n     */\n    function isWhiteListed(address _account)\n    public\n    view\n    returns(bool)\n    {\n        return(whitelist[_account]);\n    }\n\n    /**\n     * @dev amount of service records for given station\n     */\n    function getRecordCount(uint256 _stationId)\n    public\n    view\n    returns(uint256)\n    {\n        return(serviceRecords[_stationId].length);\n    }\n\n    /**\n     * @dev get amount of array of station records\n     */\n    function getStationAmount()\n    public\n    view \n    returns(uint256)\n    {\n        return(stationId);\n    }\n\n/************** Station Creation ***************/\n\n    /**\n     * @dev allows contract owner to add a new power stations\n     * \n     * Could add whitelist of verified address for adding power stations\n     */\n    function addStation(\n                        uint256 _lat, \n                        uint256 _long,\n                        uint256 _installCapacity,\n                        uint256 _sellCapacity,\n                        uint256 _pricePerMW,\n                        GenerationType _generationType,\n                        StationState _state\n                        )\n    public\n    isSenderWhiteListed()\n    {\n        // Set station coordinates\n        Coordinates memory coordinates;\n        coordinates.lat = _lat;\n        coordinates.long = _long;\n\n        // Set power station\n        PowerStation memory ps;\n        ps.location = coordinates;\n        ps.installedCapacity = _installCapacity;\n        ps.pricePerMW = _pricePerMW;\n        ps.sellCapacity = _sellCapacity;\n        ps.timeCreated = block.timestamp;\n        ps.lastUpdated = block.timestamp;\n        ps.generationType = _generationType;\n        ps.state = _state;\n        ps.organization = msg.sender;\n\n        // create power station id -> hash of power station\n        // bytes32 powerStationHash = keccak256(abi.encode(ps));\n        powerStations[stationId] = ps;\n        stationId += 1;\n        // emit station created event\n        emit StationCreated(stationId);\n    }\n\n    /************** Station Capacity ***************/\n\n    /**\n     * @dev allows station ownership to be change\n     *\n     */\n    function updateStationSellCapacity(\n                                        uint256 _stationId,\n                                        uint256 _newCapacity\n                                      )\n    public\n    onlyStationOwner(_stationId)\n    {\n        // get power station\n        PowerStation memory ps = powerStations[_stationId];\n        ps.sellCapacity = _newCapacity;\n        ps.lastUpdated = block.timestamp;\n        powerStations[_stationId] = ps;\n        emit StationSellCapacityChanged(_stationId,_newCapacity);\n    }\n\n    /**\n     * @dev allows station capacity to be bought\n     *\n     * Note Ideally buy capacity would only be used buy trusted entities\n     */\n    function buyCapacity(uint256 _stationId, uint256 _amount)\n    public\n    payable\n    {\n        PowerStation memory ps = powerStations[_stationId];\n\n        require(ps.sellCapacity > _amount,\"Amount exceeds station sell capacity\");\n        uint256 buyAmount = ps.pricePerMW * _amount;\n        require(msg.value >= buyAmount, \"Invalid Balance\");\n        // owner can not buy there own supply\n        require(ps.organization != msg.sender,\"Not station owner\");\n        \n        ps.sellCapacity -= _amount; // reverts if underflow \n        ps.lastUpdated = block.timestamp;\n        powerStations[_stationId] = ps; // important to before tranfering\n\n        (bool sent, bytes memory data) = ps.organization.call{value:buyAmount}(\"\");\n        require(sent, \"Failed to send Ether\");\n\n        emit BuyStationCapacity(_stationId, _amount);\n    }\n\n    /**\n     * @dev allows station reserve to be change from contract owner\n     * Look at docs for additional infomation on this mechanism\n     * Could add incetive on keeping to reserve capacity\n     */\n    function targetReserveCapacity(uint256 _stationId, uint256 _newRate)\n    public\n    onlyStationOwner(_stationId)\n    {\n        PowerStation memory ps = powerStations[_stationId];\n        ps.targetReserveCapacity = _newRate;\n        ps.lastUpdated = block.timestamp; // update timestamp\n        powerStations[_stationId] = ps;\n\n        emit StationTargetReserveCapacityChanged(_stationId, _newRate);\n    }\n\n    /*************** Station Service Entry ****************/\n\n    /**\n     * @dev allows station reports to be documented on-chain\n     *\n     */\n    function newServiceEntry(uint256 _stationId, string memory reportId)\n    public\n    onlyStationOwner(_stationId)\n    {\n        StationRecord memory sr;\n        sr.report = reportId;\n        sr.reportDate = block.timestamp; // add timestamp \n\n        serviceRecords[_stationId].push(sr);\n        // emit new service event\n        emit NewServiceEntry(_stationId, serviceRecords[_stationId].length);\n    }\n\n    /**\n     * @dev get array of station records\n     * \n     */\n    function getRecords(uint256 _stationId,uint256 _startRecordIndex, uint256 _amountOfStations)\n    public\n    view \n    returns(StationRecord[] memory)\n    {\n        require(serviceRecords[_stationId].length < _amountOfStations,\"Start index cannot surpass record amount\");\n\n        uint256 newIndex = 0;\n\n        StationRecord[] memory tempList = new StationRecord[](_amountOfStations);\n\n        for(uint i = 0;i < _amountOfStations; i++){\n            tempList[newIndex] = serviceRecords[_stationId][_startRecordIndex + i];\n            newIndex += 1;\n        }\n        return (tempList);\n    }\n    \n    /*************** Station State/Ownership ****************/\n\n    /**\n     * @dev allows station ownership to be change\n     */\n    function changeStationOwner(uint256 _stationId, address _newOwner)\n    public\n    onlyStationOwner(_stationId)\n    {\n        PowerStation memory ps = powerStations[_stationId];\n        ps.organization = _newOwner;\n        ps.lastUpdated = block.timestamp;\n        powerStations[_stationId] = ps;\n        // emit station owner change\n        emit StationOwnerChanged(_stationId,_newOwner);\n    }\n\n\n    /**\n     * @dev allows station ownership to be change \n     */\n    function changeStationState(uint256 _stationId, StationState _newState)\n    public\n    onlyStationOwner(_stationId)\n    {\n        PowerStation memory ps = powerStations[_stationId];\n        ps.state = _newState;\n        ps.lastUpdated = block.timestamp;\n        powerStations[_stationId] = ps;\n        emit StationStateChanged(_stationId,_newState);\n    }\n}",
  "sourcePath": "/Users/mitch/Documents/Hackathon/R2EnergySupplyChain/contracts/Spectrum.sol",
  "compiler": {
    "name": "solc",
    "version": "0.8.19+commit.7dd6d404.Emscripten.clang"
  },
  "schemaVersion": "3.4.13",
  "updatedAt": "2023-03-21T04:49:42.259Z",
  "devdoc": {
    "kind": "dev",
    "methods": {
      "addStation(uint256,uint256,uint256,uint256,uint256,uint8,uint8)": {
        "details": "allows contract owner to add a new power stations  Could add whitelist of verified address for adding power stations"
      },
      "buyCapacity(uint256,uint256)": {
        "details": "allows station capacity to be bought Note Ideally buy capacity would only be used buy trusted entities"
      },
      "changeStationOwner(uint256,address)": {
        "details": "allows station ownership to be change"
      },
      "changeStationState(uint256,uint8)": {
        "details": "allows station ownership to be change "
      },
      "getRecordCount(uint256)": {
        "details": "amount of service records for given station"
      },
      "getRecords(uint256,uint256,uint256)": {
        "details": "get array of station records "
      },
      "getStationAmount()": {
        "details": "get amount of array of station records"
      },
      "getStations(uint256,uint256)": {
        "details": "get array of stations   param _startStationId starting index of stations param _amountOfStations amount of stations to populate return array array of PowerStations"
      },
      "isWhiteListed(address)": {
        "details": "allows contract owner to whitelist address"
      },
      "newServiceEntry(uint256,string)": {
        "details": "allows station reports to be documented on-chain"
      },
      "setWhiteList(address,bool)": {
        "details": "allows contract owner to whitelist address"
      },
      "targetReserveCapacity(uint256,uint256)": {
        "details": "allows station reserve to be change from contract owner Look at docs for additional infomation on this mechanism Could add incetive on keeping to reserve capacity"
      },
      "updateStationSellCapacity(uint256,uint256)": {
        "details": "allows station ownership to be change"
      }
    },
    "version": 1
  },
  "userdoc": {
    "kind": "user",
    "methods": {},
    "version": 1
  }
}